{
  "contractName": "BirdNFT",
  "abi": [
    {
      "inputs": [],
      "stateMutability": "nonpayable",
      "type": "constructor"
    },
    {
      "anonymous": false,
      "inputs": [
        {
          "indexed": true,
          "internalType": "address",
          "name": "owner",
          "type": "address"
        },
        {
          "indexed": true,
          "internalType": "address",
          "name": "approved",
          "type": "address"
        },
        {
          "indexed": true,
          "internalType": "uint256",
          "name": "tokenId",
          "type": "uint256"
        }
      ],
      "name": "Approval",
      "type": "event"
    },
    {
      "anonymous": false,
      "inputs": [
        {
          "indexed": true,
          "internalType": "address",
          "name": "owner",
          "type": "address"
        },
        {
          "indexed": true,
          "internalType": "address",
          "name": "operator",
          "type": "address"
        },
        {
          "indexed": false,
          "internalType": "bool",
          "name": "approved",
          "type": "bool"
        }
      ],
      "name": "ApprovalForAll",
      "type": "event"
    },
    {
      "anonymous": false,
      "inputs": [
        {
          "indexed": false,
          "internalType": "address",
          "name": "sender",
          "type": "address"
        },
        {
          "indexed": false,
          "internalType": "uint256",
          "name": "amount",
          "type": "uint256"
        }
      ],
      "name": "EtherReceived",
      "type": "event"
    },
    {
      "anonymous": false,
      "inputs": [
        {
          "indexed": true,
          "internalType": "address",
          "name": "from",
          "type": "address"
        },
        {
          "indexed": true,
          "internalType": "address",
          "name": "to",
          "type": "address"
        },
        {
          "indexed": true,
          "internalType": "uint256",
          "name": "tokenId",
          "type": "uint256"
        }
      ],
      "name": "Transfer",
      "type": "event"
    },
    {
      "inputs": [
        {
          "internalType": "address",
          "name": "to",
          "type": "address"
        },
        {
          "internalType": "uint256",
          "name": "tokenId",
          "type": "uint256"
        }
      ],
      "name": "approve",
      "outputs": [],
      "stateMutability": "nonpayable",
      "type": "function"
    },
    {
      "inputs": [
        {
          "internalType": "address",
          "name": "owner",
          "type": "address"
        }
      ],
      "name": "balanceOf",
      "outputs": [
        {
          "internalType": "uint256",
          "name": "",
          "type": "uint256"
        }
      ],
      "stateMutability": "view",
      "type": "function",
      "constant": true
    },
    {
      "inputs": [
        {
          "internalType": "uint256",
          "name": "tokenId",
          "type": "uint256"
        }
      ],
      "name": "getApproved",
      "outputs": [
        {
          "internalType": "address",
          "name": "",
          "type": "address"
        }
      ],
      "stateMutability": "view",
      "type": "function",
      "constant": true
    },
    {
      "inputs": [
        {
          "internalType": "address",
          "name": "owner",
          "type": "address"
        },
        {
          "internalType": "address",
          "name": "operator",
          "type": "address"
        }
      ],
      "name": "isApprovedForAll",
      "outputs": [
        {
          "internalType": "bool",
          "name": "",
          "type": "bool"
        }
      ],
      "stateMutability": "view",
      "type": "function",
      "constant": true
    },
    {
      "inputs": [],
      "name": "name",
      "outputs": [
        {
          "internalType": "string",
          "name": "",
          "type": "string"
        }
      ],
      "stateMutability": "view",
      "type": "function",
      "constant": true
    },
    {
      "inputs": [
        {
          "internalType": "uint256",
          "name": "tokenId",
          "type": "uint256"
        }
      ],
      "name": "ownerOf",
      "outputs": [
        {
          "internalType": "address",
          "name": "",
          "type": "address"
        }
      ],
      "stateMutability": "view",
      "type": "function",
      "constant": true
    },
    {
      "inputs": [
        {
          "internalType": "address",
          "name": "from",
          "type": "address"
        },
        {
          "internalType": "address",
          "name": "to",
          "type": "address"
        },
        {
          "internalType": "uint256",
          "name": "tokenId",
          "type": "uint256"
        }
      ],
      "name": "safeTransferFrom",
      "outputs": [],
      "stateMutability": "nonpayable",
      "type": "function"
    },
    {
      "inputs": [
        {
          "internalType": "address",
          "name": "from",
          "type": "address"
        },
        {
          "internalType": "address",
          "name": "to",
          "type": "address"
        },
        {
          "internalType": "uint256",
          "name": "tokenId",
          "type": "uint256"
        },
        {
          "internalType": "bytes",
          "name": "data",
          "type": "bytes"
        }
      ],
      "name": "safeTransferFrom",
      "outputs": [],
      "stateMutability": "nonpayable",
      "type": "function"
    },
    {
      "inputs": [
        {
          "internalType": "address",
          "name": "operator",
          "type": "address"
        },
        {
          "internalType": "bool",
          "name": "approved",
          "type": "bool"
        }
      ],
      "name": "setApprovalForAll",
      "outputs": [],
      "stateMutability": "nonpayable",
      "type": "function"
    },
    {
      "inputs": [
        {
          "internalType": "bytes4",
          "name": "interfaceId",
          "type": "bytes4"
        }
      ],
      "name": "supportsInterface",
      "outputs": [
        {
          "internalType": "bool",
          "name": "",
          "type": "bool"
        }
      ],
      "stateMutability": "view",
      "type": "function",
      "constant": true
    },
    {
      "inputs": [],
      "name": "symbol",
      "outputs": [
        {
          "internalType": "string",
          "name": "",
          "type": "string"
        }
      ],
      "stateMutability": "view",
      "type": "function",
      "constant": true
    },
    {
      "inputs": [
        {
          "internalType": "address",
          "name": "from",
          "type": "address"
        },
        {
          "internalType": "address",
          "name": "to",
          "type": "address"
        },
        {
          "internalType": "uint256",
          "name": "tokenId",
          "type": "uint256"
        }
      ],
      "name": "transferFrom",
      "outputs": [],
      "stateMutability": "nonpayable",
      "type": "function"
    },
    {
      "stateMutability": "payable",
      "type": "receive",
      "payable": true
    },
    {
      "inputs": [
        {
          "internalType": "address",
          "name": "recipient",
          "type": "address"
        },
        {
          "internalType": "string",
          "name": "imgURI",
          "type": "string"
        },
        {
          "internalType": "string",
          "name": "metaData",
          "type": "string"
        }
      ],
      "name": "createNFT",
      "outputs": [
        {
          "internalType": "uint256",
          "name": "",
          "type": "uint256"
        }
      ],
      "stateMutability": "payable",
      "type": "function",
      "payable": true
    },
    {
      "inputs": [
        {
          "internalType": "uint256",
          "name": "newItemId",
          "type": "uint256"
        }
      ],
      "name": "mataData",
      "outputs": [
        {
          "internalType": "string",
          "name": "",
          "type": "string"
        }
      ],
      "stateMutability": "view",
      "type": "function",
      "constant": true
    },
    {
      "inputs": [
        {
          "internalType": "uint256",
          "name": "tokenId",
          "type": "uint256"
        }
      ],
      "name": "tokenURI",
      "outputs": [
        {
          "internalType": "string",
          "name": "",
          "type": "string"
        }
      ],
      "stateMutability": "view",
      "type": "function",
      "constant": true
    },
    {
      "inputs": [
        {
          "internalType": "uint256",
          "name": "tokenId",
          "type": "uint256"
        }
      ],
      "name": "deleteNFT",
      "outputs": [],
      "stateMutability": "nonpayable",
      "type": "function"
    },
    {
      "inputs": [],
      "name": "getContractBalance",
      "outputs": [
        {
          "internalType": "uint256",
          "name": "",
          "type": "uint256"
        }
      ],
      "stateMutability": "view",
      "type": "function",
      "constant": true
    },
    {
      "inputs": [
        {
          "internalType": "address payable",
          "name": "contractAddress",
          "type": "address"
        }
      ],
      "name": "sendEtherToContract",
      "outputs": [],
      "stateMutability": "payable",
      "type": "function",
      "payable": true
    }
  ],
  "bytecode": "0x60806040523480156200001157600080fd5b506040518060400160405280600781526020017f426972644e4654000000000000000000000000000000000000000000000000008152506040518060400160405280600481526020017f424e46540000000000000000000000000000000000000000000000000000000081525081600090816200008f919062000324565b508060019081620000a1919062000324565b5050506200040b565b600081519050919050565b7f4e487b7100000000000000000000000000000000000000000000000000000000600052604160045260246000fd5b7f4e487b7100000000000000000000000000000000000000000000000000000000600052602260045260246000fd5b600060028204905060018216806200012c57607f821691505b602082108103620001425762000141620000e4565b5b50919050565b60008190508160005260206000209050919050565b60006020601f8301049050919050565b600082821b905092915050565b600060088302620001ac7fffffffffffffffffffffffffffffffffffffffffffffffffffffffffffffffff826200016d565b620001b886836200016d565b95508019841693508086168417925050509392505050565b6000819050919050565b6000819050919050565b600062000205620001ff620001f984620001d0565b620001da565b620001d0565b9050919050565b6000819050919050565b6200022183620001e4565b6200023962000230826200020c565b8484546200017a565b825550505050565b600090565b6200025062000241565b6200025d81848462000216565b505050565b5b8181101562000285576200027960008262000246565b60018101905062000263565b5050565b601f821115620002d4576200029e8162000148565b620002a9846200015d565b81016020851015620002b9578190505b620002d1620002c8856200015d565b83018262000262565b50505b505050565b600082821c905092915050565b6000620002f960001984600802620002d9565b1980831691505092915050565b6000620003148383620002e6565b9150826002028217905092915050565b6200032f82620000aa565b67ffffffffffffffff8111156200034b576200034a620000b5565b5b62000357825462000113565b6200036482828562000289565b600060209050601f8311600181146200039c576000841562000387578287015190505b62000393858262000306565b86555062000403565b601f198416620003ac8662000148565b60005b82811015620003d657848901518255600182019150602085019450602081019050620003af565b86831015620003f65784890151620003f2601f891682620002e6565b8355505b6001600288020188555050505b505050505050565b61322d806200041b6000396000f3fe60806040526004361061010d5760003560e01c80636352211e11610095578063a22cb46511610064578063a22cb465146103cb578063b88d4fde146103f4578063c87b56dd1461041d578063e985e9c51461045a578063f687ed57146104975761014d565b80636352211e146102fb5780636f9fb98a1461033857806370a082311461036357806395d89b41146103a05761014d565b8063095ea7b3116100dc578063095ea7b3146102135780630b564a7c1461023c57806323b872dd1461026c57806342842e0e146102955780635739f1c3146102be5761014d565b806301ffc9a71461015257806305e0bafd1461018f57806306fdde03146101ab578063081812fc146101d65761014d565b3661014d577f1e57e3bb474320be3d2c77138f75b7c3941292d647f5f9634e33a8e94e0e069b3334604051610143929190611f13565b60405180910390a1005b600080fd5b34801561015e57600080fd5b5061017960048036038101906101749190611fa8565b6104c0565b6040516101869190611ff0565b60405180910390f35b6101a960048036038101906101a49190612049565b6105a2565b005b3480156101b757600080fd5b506101c06105ec565b6040516101cd9190612106565b60405180910390f35b3480156101e257600080fd5b506101fd60048036038101906101f89190612154565b61067e565b60405161020a9190612181565b60405180910390f35b34801561021f57600080fd5b5061023a600480360381019061023591906121c8565b6106c4565b005b6102566004803603810190610251919061233d565b6107db565b60405161026391906123c8565b60405180910390f35b34801561027857600080fd5b50610293600480360381019061028e91906123e3565b61086c565b005b3480156102a157600080fd5b506102bc60048036038101906102b791906123e3565b6108cc565b005b3480156102ca57600080fd5b506102e560048036038101906102e09190612154565b6108ec565b6040516102f29190612106565b60405180910390f35b34801561030757600080fd5b50610322600480360381019061031d9190612154565b6109df565b60405161032f9190612181565b60405180910390f35b34801561034457600080fd5b5061034d610a65565b60405161035a91906123c8565b60405180910390f35b34801561036f57600080fd5b5061038a60048036038101906103859190612436565b610a80565b60405161039791906123c8565b60405180910390f35b3480156103ac57600080fd5b506103b5610b37565b6040516103c29190612106565b60405180910390f35b3480156103d757600080fd5b506103f260048036038101906103ed919061248f565b610bc9565b005b34801561040057600080fd5b5061041b60048036038101906104169190612570565b610bdf565b005b34801561042957600080fd5b50610444600480360381019061043f9190612154565b610c41565b6040516104519190612106565b60405180910390f35b34801561046657600080fd5b50610481600480360381019061047c91906125f3565b610c53565b60405161048e9190611ff0565b60405180910390f35b3480156104a357600080fd5b506104be60048036038101906104b99190612154565b610ce7565b005b60007f80ac58cd000000000000000000000000000000000000000000000000000000007bffffffffffffffffffffffffffffffffffffffffffffffffffffffff1916827bffffffffffffffffffffffffffffffffffffffffffffffffffffffff1916148061058b57507f5b5e139f000000000000000000000000000000000000000000000000000000007bffffffffffffffffffffffffffffffffffffffffffffffffffffffff1916827bffffffffffffffffffffffffffffffffffffffffffffffffffffffff1916145b8061059b575061059a82610cf3565b5b9050919050565b8073ffffffffffffffffffffffffffffffffffffffff166108fc349081150290604051600060405180830381858888f193505050501580156105e8573d6000803e3d6000fd5b5050565b6060600080546105fb90612662565b80601f016020809104026020016040519081016040528092919081815260200182805461062790612662565b80156106745780601f1061064957610100808354040283529160200191610674565b820191906000526020600020905b81548152906001019060200180831161065757829003601f168201915b5050505050905090565b600061068982610d5d565b6004600083815260200190815260200160002060009054906101000a900473ffffffffffffffffffffffffffffffffffffffff169050919050565b60006106cf826109df565b90508073ffffffffffffffffffffffffffffffffffffffff168373ffffffffffffffffffffffffffffffffffffffff160361073f576040517f08c379a000000000000000000000000000000000000000000000000000000000815260040161073690612705565b60405180910390fd5b8073ffffffffffffffffffffffffffffffffffffffff1661075e610da8565b73ffffffffffffffffffffffffffffffffffffffff16148061078d575061078c81610787610da8565b610c53565b5b6107cc576040517f08c379a00000000000000000000000000000000000000000000000000000000081526004016107c390612797565b60405180910390fd5b6107d68383610db0565b505050565b60006107e76007610e69565b60006107f36007610e7f565b90506107ff8582610e8d565b61080981856110aa565b6108138184611117565b3373ffffffffffffffffffffffffffffffffffffffff166108fc61083561113c565b9081150290604051600060405180830381858888f19350505050158015610860573d6000803e3d6000fd5b50809150509392505050565b61087d610877610da8565b8261117f565b6108bc576040517f08c379a00000000000000000000000000000000000000000000000000000000081526004016108b390612829565b60405180910390fd5b6108c7838383611214565b505050565b6108e783838360405180602001604052806000815250610bdf565b505050565b60606108f78261150d565b610936576040517f08c379a000000000000000000000000000000000000000000000000000000000815260040161092d906128bb565b60405180910390fd5b600060086000848152602001908152602001600020805461095690612662565b80601f016020809104026020016040519081016040528092919081815260200182805461098290612662565b80156109cf5780601f106109a4576101008083540402835291602001916109cf565b820191906000526020600020905b8154815290600101906020018083116109b257829003601f168201915b5050505050905080915050919050565b6000806109eb8361154e565b9050600073ffffffffffffffffffffffffffffffffffffffff168173ffffffffffffffffffffffffffffffffffffffff1603610a5c576040517f08c379a0000000000000000000000000000000000000000000000000000000008152600401610a5390612927565b60405180910390fd5b80915050919050565b6000670de0b6b3a764000047610a7b91906129a5565b905090565b60008073ffffffffffffffffffffffffffffffffffffffff168273ffffffffffffffffffffffffffffffffffffffff1603610af0576040517f08c379a0000000000000000000000000000000000000000000000000000000008152600401610ae790612a48565b60405180910390fd5b600360008373ffffffffffffffffffffffffffffffffffffffff1673ffffffffffffffffffffffffffffffffffffffff168152602001908152602001600020549050919050565b606060018054610b4690612662565b80601f0160208091040260200160405190810160405280929190818152602001828054610b7290612662565b8015610bbf5780601f10610b9457610100808354040283529160200191610bbf565b820191906000526020600020905b815481529060010190602001808311610ba257829003601f168201915b5050505050905090565b610bdb610bd4610da8565b838361158b565b5050565b610bf0610bea610da8565b8361117f565b610c2f576040517f08c379a0000000000000000000000000000000000000000000000000000000008152600401610c2690612829565b60405180910390fd5b610c3b848484846116f7565b50505050565b6060610c4c82611753565b9050919050565b6000600560008473ffffffffffffffffffffffffffffffffffffffff1673ffffffffffffffffffffffffffffffffffffffff16815260200190815260200160002060008373ffffffffffffffffffffffffffffffffffffffff1673ffffffffffffffffffffffffffffffffffffffff16815260200190815260200160002060009054906101000a900460ff16905092915050565b610cf081611865565b50565b60007f01ffc9a7000000000000000000000000000000000000000000000000000000007bffffffffffffffffffffffffffffffffffffffffffffffffffffffff1916827bffffffffffffffffffffffffffffffffffffffffffffffffffffffff1916149050919050565b610d668161150d565b610da5576040517f08c379a0000000000000000000000000000000000000000000000000000000008152600401610d9c90612927565b60405180910390fd5b50565b600033905090565b816004600083815260200190815260200160002060006101000a81548173ffffffffffffffffffffffffffffffffffffffff021916908373ffffffffffffffffffffffffffffffffffffffff160217905550808273ffffffffffffffffffffffffffffffffffffffff16610e23836109df565b73ffffffffffffffffffffffffffffffffffffffff167f8c5be1e5ebec7d5bd14f71427d1e84f3dd0314c0f7b2291e5b200ac8c7c3b92560405160405180910390a45050565b6001816000016000828254019250508190555050565b600081600001549050919050565b600073ffffffffffffffffffffffffffffffffffffffff168273ffffffffffffffffffffffffffffffffffffffff1603610efc576040517f08c379a0000000000000000000000000000000000000000000000000000000008152600401610ef390612ab4565b60405180910390fd5b610f058161150d565b15610f45576040517f08c379a0000000000000000000000000000000000000000000000000000000008152600401610f3c90612b20565b60405180910390fd5b610f536000838360016118b8565b610f5c8161150d565b15610f9c576040517f08c379a0000000000000000000000000000000000000000000000000000000008152600401610f9390612b20565b60405180910390fd5b6001600360008473ffffffffffffffffffffffffffffffffffffffff1673ffffffffffffffffffffffffffffffffffffffff16815260200190815260200160002060008282540192505081905550816002600083815260200190815260200160002060006101000a81548173ffffffffffffffffffffffffffffffffffffffff021916908373ffffffffffffffffffffffffffffffffffffffff160217905550808273ffffffffffffffffffffffffffffffffffffffff16600073ffffffffffffffffffffffffffffffffffffffff167fddf252ad1be2c89b69c2b068fc378daa952ba7f163c4a11628f55a4df523b3ef60405160405180910390a46110a66000838360016118be565b5050565b6110b38261150d565b6110f2576040517f08c379a00000000000000000000000000000000000000000000000000000000081526004016110e990612bb2565b60405180910390fd5b806006600084815260200190815260200160002090816111129190612d7e565b505050565b806008600084815260200190815260200160002090816111379190612d7e565b505050565b6000803a905060005a9050600081836111559190612e50565b905066038d7ea4c6800081106111725766038d7ea4c68000611174565b805b905080935050505090565b60008061118b836109df565b90508073ffffffffffffffffffffffffffffffffffffffff168473ffffffffffffffffffffffffffffffffffffffff1614806111cd57506111cc8185610c53565b5b8061120b57508373ffffffffffffffffffffffffffffffffffffffff166111f38461067e565b73ffffffffffffffffffffffffffffffffffffffff16145b91505092915050565b8273ffffffffffffffffffffffffffffffffffffffff16611234826109df565b73ffffffffffffffffffffffffffffffffffffffff161461128a576040517f08c379a000000000000000000000000000000000000000000000000000000000815260040161128190612f04565b60405180910390fd5b600073ffffffffffffffffffffffffffffffffffffffff168273ffffffffffffffffffffffffffffffffffffffff16036112f9576040517f08c379a00000000000000000000000000000000000000000000000000000000081526004016112f090612f96565b60405180910390fd5b61130683838360016118b8565b8273ffffffffffffffffffffffffffffffffffffffff16611326826109df565b73ffffffffffffffffffffffffffffffffffffffff161461137c576040517f08c379a000000000000000000000000000000000000000000000000000000000815260040161137390612f04565b60405180910390fd5b6004600082815260200190815260200160002060006101000a81549073ffffffffffffffffffffffffffffffffffffffff02191690556001600360008573ffffffffffffffffffffffffffffffffffffffff1673ffffffffffffffffffffffffffffffffffffffff168152602001908152602001600020600082825403925050819055506001600360008473ffffffffffffffffffffffffffffffffffffffff1673ffffffffffffffffffffffffffffffffffffffff16815260200190815260200160002060008282540192505081905550816002600083815260200190815260200160002060006101000a81548173ffffffffffffffffffffffffffffffffffffffff021916908373ffffffffffffffffffffffffffffffffffffffff160217905550808273ffffffffffffffffffffffffffffffffffffffff168473ffffffffffffffffffffffffffffffffffffffff167fddf252ad1be2c89b69c2b068fc378daa952ba7f163c4a11628f55a4df523b3ef60405160405180910390a461150883838360016118be565b505050565b60008073ffffffffffffffffffffffffffffffffffffffff1661152f8361154e565b73ffffffffffffffffffffffffffffffffffffffff1614159050919050565b60006002600083815260200190815260200160002060009054906101000a900473ffffffffffffffffffffffffffffffffffffffff169050919050565b8173ffffffffffffffffffffffffffffffffffffffff168373ffffffffffffffffffffffffffffffffffffffff16036115f9576040517f08c379a00000000000000000000000000000000000000000000000000000000081526004016115f090613002565b60405180910390fd5b80600560008573ffffffffffffffffffffffffffffffffffffffff1673ffffffffffffffffffffffffffffffffffffffff16815260200190815260200160002060008473ffffffffffffffffffffffffffffffffffffffff1673ffffffffffffffffffffffffffffffffffffffff16815260200190815260200160002060006101000a81548160ff0219169083151502179055508173ffffffffffffffffffffffffffffffffffffffff168373ffffffffffffffffffffffffffffffffffffffff167f17307eab39ab6107e8899845ad3d59bd9653f200f220920489ca2b5937696c31836040516116ea9190611ff0565b60405180910390a3505050565b611702848484611214565b61170e848484846118c4565b61174d576040517f08c379a000000000000000000000000000000000000000000000000000000000815260040161174490613094565b60405180910390fd5b50505050565b606061175e82610d5d565b600060066000848152602001908152602001600020805461177e90612662565b80601f01602080910402602001604051908101604052809291908181526020018280546117aa90612662565b80156117f75780601f106117cc576101008083540402835291602001916117f7565b820191906000526020600020905b8154815290600101906020018083116117da57829003601f168201915b505050505090506000611808611a4b565b9050600081510361181d578192505050611860565b60008251111561185257808260405160200161183a9291906130f0565b60405160208183030381529060405292505050611860565b61185b84611a62565b925050505b919050565b61186e81611aca565b600060066000838152602001908152602001600020805461188e90612662565b9050146118b5576006600082815260200190815260200160002060006118b49190611e5c565b5b50565b50505050565b50505050565b60006118e58473ffffffffffffffffffffffffffffffffffffffff16611c18565b15611a3e578373ffffffffffffffffffffffffffffffffffffffff1663150b7a0261190e610da8565b8786866040518563ffffffff1660e01b81526004016119309493929190613169565b6020604051808303816000875af192505050801561196c57506040513d601f19601f8201168201806040525081019061196991906131ca565b60015b6119ee573d806000811461199c576040519150601f19603f3d011682016040523d82523d6000602084013e6119a1565b606091505b5060008151036119e6576040517f08c379a00000000000000000000000000000000000000000000000000000000081526004016119dd90613094565b60405180910390fd5b805181602001fd5b63150b7a0260e01b7bffffffffffffffffffffffffffffffffffffffffffffffffffffffff1916817bffffffffffffffffffffffffffffffffffffffffffffffffffffffff191614915050611a43565b600190505b949350505050565b606060405180602001604052806000815250905090565b6060611a6d82610d5d565b6000611a77611a4b565b90506000815111611a975760405180602001604052806000815250611ac2565b80611aa184611c3b565b604051602001611ab29291906130f0565b6040516020818303038152906040525b915050919050565b6000611ad5826109df565b9050611ae58160008460016118b8565b611aee826109df565b90506004600083815260200190815260200160002060006101000a81549073ffffffffffffffffffffffffffffffffffffffff02191690556001600360008373ffffffffffffffffffffffffffffffffffffffff1673ffffffffffffffffffffffffffffffffffffffff168152602001908152602001600020600082825403925050819055506002600083815260200190815260200160002060006101000a81549073ffffffffffffffffffffffffffffffffffffffff021916905581600073ffffffffffffffffffffffffffffffffffffffff168273ffffffffffffffffffffffffffffffffffffffff167fddf252ad1be2c89b69c2b068fc378daa952ba7f163c4a11628f55a4df523b3ef60405160405180910390a4611c148160008460016118be565b5050565b6000808273ffffffffffffffffffffffffffffffffffffffff163b119050919050565b606060006001611c4a84611d09565b01905060008167ffffffffffffffff811115611c6957611c68612212565b5b6040519080825280601f01601f191660200182016040528015611c9b5781602001600182028036833780820191505090505b509050600082602001820190505b600115611cfe578080600190039150507f3031323334353637383961626364656600000000000000000000000000000000600a86061a8153600a8581611cf257611cf1612947565b5b04945060008503611ca9575b819350505050919050565b600080600090507a184f03e93ff9f4daa797ed6e38ed64bf6a1f0100000000000000008310611d67577a184f03e93ff9f4daa797ed6e38ed64bf6a1f0100000000000000008381611d5d57611d5c612947565b5b0492506040810190505b6d04ee2d6d415b85acef81000000008310611da4576d04ee2d6d415b85acef81000000008381611d9a57611d99612947565b5b0492506020810190505b662386f26fc100008310611dd357662386f26fc100008381611dc957611dc8612947565b5b0492506010810190505b6305f5e1008310611dfc576305f5e1008381611df257611df1612947565b5b0492506008810190505b6127108310611e21576127108381611e1757611e16612947565b5b0492506004810190505b60648310611e445760648381611e3a57611e39612947565b5b0492506002810190505b600a8310611e53576001810190505b80915050919050565b508054611e6890612662565b6000825580601f10611e7a5750611e99565b601f016020900490600052602060002090810190611e989190611e9c565b5b50565b5b80821115611eb5576000816000905550600101611e9d565b5090565b600073ffffffffffffffffffffffffffffffffffffffff82169050919050565b6000611ee482611eb9565b9050919050565b611ef481611ed9565b82525050565b6000819050919050565b611f0d81611efa565b82525050565b6000604082019050611f286000830185611eeb565b611f356020830184611f04565b9392505050565b6000604051905090565b600080fd5b600080fd5b60007fffffffff0000000000000000000000000000000000000000000000000000000082169050919050565b611f8581611f50565b8114611f9057600080fd5b50565b600081359050611fa281611f7c565b92915050565b600060208284031215611fbe57611fbd611f46565b5b6000611fcc84828501611f93565b91505092915050565b60008115159050919050565b611fea81611fd5565b82525050565b60006020820190506120056000830184611fe1565b92915050565b600061201682611eb9565b9050919050565b6120268161200b565b811461203157600080fd5b50565b6000813590506120438161201d565b92915050565b60006020828403121561205f5761205e611f46565b5b600061206d84828501612034565b91505092915050565b600081519050919050565b600082825260208201905092915050565b60005b838110156120b0578082015181840152602081019050612095565b60008484015250505050565b6000601f19601f8301169050919050565b60006120d882612076565b6120e28185612081565b93506120f2818560208601612092565b6120fb816120bc565b840191505092915050565b6000602082019050818103600083015261212081846120cd565b905092915050565b61213181611efa565b811461213c57600080fd5b50565b60008135905061214e81612128565b92915050565b60006020828403121561216a57612169611f46565b5b60006121788482850161213f565b91505092915050565b60006020820190506121966000830184611eeb565b92915050565b6121a581611ed9565b81146121b057600080fd5b50565b6000813590506121c28161219c565b92915050565b600080604083850312156121df576121de611f46565b5b60006121ed858286016121b3565b92505060206121fe8582860161213f565b9150509250929050565b600080fd5b600080fd5b7f4e487b7100000000000000000000000000000000000000000000000000000000600052604160045260246000fd5b61224a826120bc565b810181811067ffffffffffffffff8211171561226957612268612212565b5b80604052505050565b600061227c611f3c565b90506122888282612241565b919050565b600067ffffffffffffffff8211156122a8576122a7612212565b5b6122b1826120bc565b9050602081019050919050565b82818337600083830152505050565b60006122e06122db8461228d565b612272565b9050828152602081018484840111156122fc576122fb61220d565b5b6123078482856122be565b509392505050565b600082601f83011261232457612323612208565b5b81356123348482602086016122cd565b91505092915050565b60008060006060848603121561235657612355611f46565b5b6000612364868287016121b3565b935050602084013567ffffffffffffffff81111561238557612384611f4b565b5b6123918682870161230f565b925050604084013567ffffffffffffffff8111156123b2576123b1611f4b565b5b6123be8682870161230f565b9150509250925092565b60006020820190506123dd6000830184611f04565b92915050565b6000806000606084860312156123fc576123fb611f46565b5b600061240a868287016121b3565b935050602061241b868287016121b3565b925050604061242c8682870161213f565b9150509250925092565b60006020828403121561244c5761244b611f46565b5b600061245a848285016121b3565b91505092915050565b61246c81611fd5565b811461247757600080fd5b50565b60008135905061248981612463565b92915050565b600080604083850312156124a6576124a5611f46565b5b60006124b4858286016121b3565b92505060206124c58582860161247a565b9150509250929050565b600067ffffffffffffffff8211156124ea576124e9612212565b5b6124f3826120bc565b9050602081019050919050565b600061251361250e846124cf565b612272565b90508281526020810184848401111561252f5761252e61220d565b5b61253a8482856122be565b509392505050565b600082601f83011261255757612556612208565b5b8135612567848260208601612500565b91505092915050565b6000806000806080858703121561258a57612589611f46565b5b6000612598878288016121b3565b94505060206125a9878288016121b3565b93505060406125ba8782880161213f565b925050606085013567ffffffffffffffff8111156125db576125da611f4b565b5b6125e787828801612542565b91505092959194509250565b6000806040838503121561260a57612609611f46565b5b6000612618858286016121b3565b9250506020612629858286016121b3565b9150509250929050565b7f4e487b7100000000000000000000000000000000000000000000000000000000600052602260045260246000fd5b6000600282049050600182168061267a57607f821691505b60208210810361268d5761268c612633565b5b50919050565b7f4552433732313a20617070726f76616c20746f2063757272656e74206f776e6560008201527f7200000000000000000000000000000000000000000000000000000000000000602082015250565b60006126ef602183612081565b91506126fa82612693565b604082019050919050565b6000602082019050818103600083015261271e816126e2565b9050919050565b7f4552433732313a20617070726f76652063616c6c6572206973206e6f7420746f60008201527f6b656e206f776e6572206f7220617070726f76656420666f7220616c6c000000602082015250565b6000612781603d83612081565b915061278c82612725565b604082019050919050565b600060208201905081810360008301526127b081612774565b9050919050565b7f4552433732313a2063616c6c6572206973206e6f7420746f6b656e206f776e6560008201527f72206f7220617070726f76656400000000000000000000000000000000000000602082015250565b6000612813602d83612081565b915061281e826127b7565b604082019050919050565b6000602082019050818103600083015261284281612806565b9050919050565b7f426972644e46543a2055524920717565727920666f72206e6f6e65786973746560008201527f6e7420746f6b656e000000000000000000000000000000000000000000000000602082015250565b60006128a5602883612081565b91506128b082612849565b604082019050919050565b600060208201905081810360008301526128d481612898565b9050919050565b7f4552433732313a20696e76616c696420746f6b656e2049440000000000000000600082015250565b6000612911601883612081565b915061291c826128db565b602082019050919050565b6000602082019050818103600083015261294081612904565b9050919050565b7f4e487b7100000000000000000000000000000000000000000000000000000000600052601260045260246000fd5b7f4e487b7100000000000000000000000000000000000000000000000000000000600052601160045260246000fd5b60006129b082611efa565b91506129bb83611efa565b9250826129cb576129ca612947565b5b828204905092915050565b7f4552433732313a2061646472657373207a65726f206973206e6f74206120766160008201527f6c6964206f776e65720000000000000000000000000000000000000000000000602082015250565b6000612a32602983612081565b9150612a3d826129d6565b604082019050919050565b60006020820190508181036000830152612a6181612a25565b9050919050565b7f4552433732313a206d696e7420746f20746865207a65726f2061646472657373600082015250565b6000612a9e602083612081565b9150612aa982612a68565b602082019050919050565b60006020820190508181036000830152612acd81612a91565b9050919050565b7f4552433732313a20746f6b656e20616c7265616479206d696e74656400000000600082015250565b6000612b0a601c83612081565b9150612b1582612ad4565b602082019050919050565b60006020820190508181036000830152612b3981612afd565b9050919050565b7f45524337323155524953746f726167653a2055524920736574206f66206e6f6e60008201527f6578697374656e7420746f6b656e000000000000000000000000000000000000602082015250565b6000612b9c602e83612081565b9150612ba782612b40565b604082019050919050565b60006020820190508181036000830152612bcb81612b8f565b9050919050565b60008190508160005260206000209050919050565b60006020601f8301049050919050565b600082821b905092915050565b600060088302612c347fffffffffffffffffffffffffffffffffffffffffffffffffffffffffffffffff82612bf7565b612c3e8683612bf7565b95508019841693508086168417925050509392505050565b6000819050919050565b6000612c7b612c76612c7184611efa565b612c56565b611efa565b9050919050565b6000819050919050565b612c9583612c60565b612ca9612ca182612c82565b848454612c04565b825550505050565b600090565b612cbe612cb1565b612cc9818484612c8c565b505050565b5b81811015612ced57612ce2600082612cb6565b600181019050612ccf565b5050565b601f821115612d3257612d0381612bd2565b612d0c84612be7565b81016020851015612d1b578190505b612d2f612d2785612be7565b830182612cce565b50505b505050565b600082821c905092915050565b6000612d5560001984600802612d37565b1980831691505092915050565b6000612d6e8383612d44565b9150826002028217905092915050565b612d8782612076565b67ffffffffffffffff811115612da057612d9f612212565b5b612daa8254612662565b612db5828285612cf1565b600060209050601f831160018114612de85760008415612dd6578287015190505b612de08582612d62565b865550612e48565b601f198416612df686612bd2565b60005b82811015612e1e57848901518255600182019150602085019450602081019050612df9565b86831015612e3b5784890151612e37601f891682612d44565b8355505b6001600288020188555050505b505050505050565b6000612e5b82611efa565b9150612e6683611efa565b9250828202612e7481611efa565b91508282048414831517612e8b57612e8a612976565b5b5092915050565b7f4552433732313a207472616e736665722066726f6d20696e636f72726563742060008201527f6f776e6572000000000000000000000000000000000000000000000000000000602082015250565b6000612eee602583612081565b9150612ef982612e92565b604082019050919050565b60006020820190508181036000830152612f1d81612ee1565b9050919050565b7f4552433732313a207472616e7366657220746f20746865207a65726f2061646460008201527f7265737300000000000000000000000000000000000000000000000000000000602082015250565b6000612f80602483612081565b9150612f8b82612f24565b604082019050919050565b60006020820190508181036000830152612faf81612f73565b9050919050565b7f4552433732313a20617070726f766520746f2063616c6c657200000000000000600082015250565b6000612fec601983612081565b9150612ff782612fb6565b602082019050919050565b6000602082019050818103600083015261301b81612fdf565b9050919050565b7f4552433732313a207472616e7366657220746f206e6f6e20455243373231526560008201527f63656976657220696d706c656d656e7465720000000000000000000000000000602082015250565b600061307e603283612081565b915061308982613022565b604082019050919050565b600060208201905081810360008301526130ad81613071565b9050919050565b600081905092915050565b60006130ca82612076565b6130d481856130b4565b93506130e4818560208601612092565b80840191505092915050565b60006130fc82856130bf565b915061310882846130bf565b91508190509392505050565b600081519050919050565b600082825260208201905092915050565b600061313b82613114565b613145818561311f565b9350613155818560208601612092565b61315e816120bc565b840191505092915050565b600060808201905061317e6000830187611eeb565b61318b6020830186611eeb565b6131986040830185611f04565b81810360608301526131aa8184613130565b905095945050505050565b6000815190506131c481611f7c565b92915050565b6000602082840312156131e0576131df611f46565b5b60006131ee848285016131b5565b9150509291505056fea26469706673582212200597c65e859a7c2a2dce954b4dd612fe8e7990ec40b3334dd90bbc2c14140cb764736f6c63430008130033",
  "immutableReferences": {},
  "source": "// SPDX-License-Identifier: MIT\npragma solidity >=0.4.22 <0.9.0;\n\nimport \"@openzeppelin/contracts/token/ERC721/extensions/ERC721URIStorage.sol\";\nimport \"@openzeppelin/contracts/utils/Counters.sol\";\n\ncontract BirdNFT is ERC721URIStorage {\n    using Counters for Counters.Counter;\n    Counters.Counter private _tokenIds;\n    \n    event EtherReceived(address sender, uint256 amount);\n\n    mapping(uint256 => string) private _metaDatas;\n\n    constructor() ERC721(\"BirdNFT\", \"BNFT\") {}\n\n    // \n    function createNFT(address recipient, string memory imgURI, string memory metaData) public payable returns (uint256) {\n        _tokenIds.increment();\n        uint256 newItemId = _tokenIds.current();\n        _mint(recipient, newItemId);\n        _setTokenURI(newItemId, imgURI);\n        _setMetaDatas(newItemId, metaData);\n        // \n        payable(msg.sender).transfer(calculateGasFee());\n        return newItemId;\n    }\n\n    function _setMetaDatas(uint256 newItemId, string memory metaData) internal {\n        _metaDatas[newItemId] = metaData;\n    }\n\n    function mataData(uint256 newItemId) public view returns (string memory) {\n        require(_exists(newItemId), \"BirdNFT: URI query for nonexistent token\");\n        string memory uri = _metaDatas[newItemId];\n        return uri;\n    }\n\n    function calculateGasFee() internal view returns (uint256) {\n        //    .\n        //    0.001 ether .\n        uint256 gasPrice = tx.gasprice;\n        uint256 gasLimit = gasleft();\n        uint256 gasFee = gasPrice * gasLimit;\n        \n        //      .\n        gasFee = gasFee < 0.001 ether ? gasFee : 0.001 ether;\n        \n        return gasFee;\n    }\n\n    // URI \n    function tokenURI(uint256 tokenId) public view virtual override(ERC721URIStorage) returns (string memory) {\n        return super.tokenURI(tokenId);\n    }\n\n    // \n    function deleteNFT(uint256 tokenId) public {\n        _burn(tokenId);\n    }\n\n      //Contract   \n     function getContractBalance() public view returns (uint256) {\n        return address(this).balance / 1 ether;\n    }\n\n    //          \n    receive() external payable {\n        emit EtherReceived(msg.sender, msg.value);\n    }\n\n     //   \n     function sendEtherToContract(address payable contractAddress) external payable {\n        contractAddress.transfer(msg.value);\n    }\n}\n",
  "sourcePath": "C:\\Users\\lunar\\Downloads\\smart-contract\\contracts\\BirdNFT.sol",
  "compiler": {
    "name": "solc",
    "version": "0.8.19+commit.7dd6d404.Emscripten.clang"
  },
  "schemaVersion": "3.4.13",
  "updatedAt": "2023-05-10T02:01:45.022Z",
  "networkType": "ethereum",
  "devdoc": {
    "events": {
      "Approval(address,address,uint256)": {
        "details": "Emitted when `owner` enables `approved` to manage the `tokenId` token."
      },
      "ApprovalForAll(address,address,bool)": {
        "details": "Emitted when `owner` enables or disables (`approved`) `operator` to manage all of its assets."
      },
      "Transfer(address,address,uint256)": {
        "details": "Emitted when `tokenId` token is transferred from `from` to `to`."
      }
    },
    "kind": "dev",
    "methods": {
      "approve(address,uint256)": {
        "details": "See {IERC721-approve}."
      },
      "balanceOf(address)": {
        "details": "See {IERC721-balanceOf}."
      },
      "getApproved(uint256)": {
        "details": "See {IERC721-getApproved}."
      },
      "isApprovedForAll(address,address)": {
        "details": "See {IERC721-isApprovedForAll}."
      },
      "name()": {
        "details": "See {IERC721Metadata-name}."
      },
      "ownerOf(uint256)": {
        "details": "See {IERC721-ownerOf}."
      },
      "safeTransferFrom(address,address,uint256)": {
        "details": "See {IERC721-safeTransferFrom}."
      },
      "safeTransferFrom(address,address,uint256,bytes)": {
        "details": "See {IERC721-safeTransferFrom}."
      },
      "setApprovalForAll(address,bool)": {
        "details": "See {IERC721-setApprovalForAll}."
      },
      "supportsInterface(bytes4)": {
        "details": "See {IERC165-supportsInterface}."
      },
      "symbol()": {
        "details": "See {IERC721Metadata-symbol}."
      },
      "tokenURI(uint256)": {
        "details": "See {IERC721Metadata-tokenURI}."
      },
      "transferFrom(address,address,uint256)": {
        "details": "See {IERC721-transferFrom}."
      }
    },
    "version": 1
  },
  "userdoc": {
    "kind": "user",
    "methods": {},
    "version": 1
  }
}