{
  "contractName": "Donation",
  "abi": [
    {
      "inputs": [
        {
          "internalType": "string",
          "name": "name",
          "type": "string"
        },
        {
          "internalType": "string",
          "name": "symbol",
          "type": "string"
        }
      ],
      "stateMutability": "nonpayable",
      "type": "constructor"
    },
    {
      "anonymous": false,
      "inputs": [
        {
          "indexed": true,
          "internalType": "address",
          "name": "owner",
          "type": "address"
        },
        {
          "indexed": true,
          "internalType": "address",
          "name": "spender",
          "type": "address"
        },
        {
          "indexed": false,
          "internalType": "uint256",
          "name": "value",
          "type": "uint256"
        }
      ],
      "name": "Approval",
      "type": "event"
    },
    {
      "anonymous": false,
      "inputs": [
        {
          "indexed": false,
          "internalType": "address",
          "name": "sender",
          "type": "address"
        },
        {
          "indexed": false,
          "internalType": "uint256",
          "name": "amount",
          "type": "uint256"
        }
      ],
      "name": "DonationReceived",
      "type": "event"
    },
    {
      "anonymous": false,
      "inputs": [
        {
          "indexed": false,
          "internalType": "address",
          "name": "sender",
          "type": "address"
        },
        {
          "indexed": false,
          "internalType": "uint256",
          "name": "amount",
          "type": "uint256"
        }
      ],
      "name": "EtherReceived",
      "type": "event"
    },
    {
      "anonymous": false,
      "inputs": [
        {
          "indexed": false,
          "internalType": "address",
          "name": "_msgSender",
          "type": "address"
        },
        {
          "indexed": false,
          "internalType": "uint256",
          "name": "_value",
          "type": "uint256"
        }
      ],
      "name": "MyCurrentValue",
      "type": "event"
    },
    {
      "anonymous": false,
      "inputs": [
        {
          "indexed": true,
          "internalType": "address",
          "name": "from",
          "type": "address"
        },
        {
          "indexed": true,
          "internalType": "address",
          "name": "to",
          "type": "address"
        },
        {
          "indexed": false,
          "internalType": "uint256",
          "name": "value",
          "type": "uint256"
        }
      ],
      "name": "Transfer",
      "type": "event"
    },
    {
      "inputs": [
        {
          "internalType": "address",
          "name": "owner",
          "type": "address"
        },
        {
          "internalType": "address",
          "name": "spender",
          "type": "address"
        }
      ],
      "name": "allowance",
      "outputs": [
        {
          "internalType": "uint256",
          "name": "",
          "type": "uint256"
        }
      ],
      "stateMutability": "view",
      "type": "function",
      "constant": true
    },
    {
      "inputs": [
        {
          "internalType": "address",
          "name": "spender",
          "type": "address"
        },
        {
          "internalType": "uint256",
          "name": "amount",
          "type": "uint256"
        }
      ],
      "name": "approve",
      "outputs": [
        {
          "internalType": "bool",
          "name": "",
          "type": "bool"
        }
      ],
      "stateMutability": "nonpayable",
      "type": "function"
    },
    {
      "inputs": [
        {
          "internalType": "address",
          "name": "account",
          "type": "address"
        }
      ],
      "name": "balanceOf",
      "outputs": [
        {
          "internalType": "uint256",
          "name": "",
          "type": "uint256"
        }
      ],
      "stateMutability": "view",
      "type": "function",
      "constant": true
    },
    {
      "inputs": [],
      "name": "decimals",
      "outputs": [
        {
          "internalType": "uint8",
          "name": "",
          "type": "uint8"
        }
      ],
      "stateMutability": "view",
      "type": "function",
      "constant": true
    },
    {
      "inputs": [
        {
          "internalType": "address",
          "name": "spender",
          "type": "address"
        },
        {
          "internalType": "uint256",
          "name": "subtractedValue",
          "type": "uint256"
        }
      ],
      "name": "decreaseAllowance",
      "outputs": [
        {
          "internalType": "bool",
          "name": "",
          "type": "bool"
        }
      ],
      "stateMutability": "nonpayable",
      "type": "function"
    },
    {
      "inputs": [],
      "name": "donationReceiver",
      "outputs": [
        {
          "internalType": "address payable",
          "name": "",
          "type": "address"
        }
      ],
      "stateMutability": "view",
      "type": "function",
      "constant": true
    },
    {
      "inputs": [
        {
          "internalType": "address",
          "name": "spender",
          "type": "address"
        },
        {
          "internalType": "uint256",
          "name": "addedValue",
          "type": "uint256"
        }
      ],
      "name": "increaseAllowance",
      "outputs": [
        {
          "internalType": "bool",
          "name": "",
          "type": "bool"
        }
      ],
      "stateMutability": "nonpayable",
      "type": "function"
    },
    {
      "inputs": [],
      "name": "name",
      "outputs": [
        {
          "internalType": "string",
          "name": "",
          "type": "string"
        }
      ],
      "stateMutability": "view",
      "type": "function",
      "constant": true
    },
    {
      "inputs": [],
      "name": "symbol",
      "outputs": [
        {
          "internalType": "string",
          "name": "",
          "type": "string"
        }
      ],
      "stateMutability": "view",
      "type": "function",
      "constant": true
    },
    {
      "inputs": [],
      "name": "totalSupply",
      "outputs": [
        {
          "internalType": "uint256",
          "name": "",
          "type": "uint256"
        }
      ],
      "stateMutability": "view",
      "type": "function",
      "constant": true
    },
    {
      "inputs": [
        {
          "internalType": "address",
          "name": "to",
          "type": "address"
        },
        {
          "internalType": "uint256",
          "name": "amount",
          "type": "uint256"
        }
      ],
      "name": "transfer",
      "outputs": [
        {
          "internalType": "bool",
          "name": "",
          "type": "bool"
        }
      ],
      "stateMutability": "nonpayable",
      "type": "function"
    },
    {
      "inputs": [
        {
          "internalType": "address",
          "name": "from",
          "type": "address"
        },
        {
          "internalType": "address",
          "name": "to",
          "type": "address"
        },
        {
          "internalType": "uint256",
          "name": "amount",
          "type": "uint256"
        }
      ],
      "name": "transferFrom",
      "outputs": [
        {
          "internalType": "bool",
          "name": "",
          "type": "bool"
        }
      ],
      "stateMutability": "nonpayable",
      "type": "function"
    },
    {
      "stateMutability": "payable",
      "type": "receive",
      "payable": true
    },
    {
      "inputs": [],
      "name": "getContractBalance",
      "outputs": [
        {
          "internalType": "uint256",
          "name": "",
          "type": "uint256"
        }
      ],
      "stateMutability": "view",
      "type": "function",
      "constant": true
    },
    {
      "inputs": [],
      "name": "getTotalContribution",
      "outputs": [
        {
          "internalType": "uint256",
          "name": "total",
          "type": "uint256"
        }
      ],
      "stateMutability": "view",
      "type": "function",
      "constant": true
    },
    {
      "inputs": [
        {
          "internalType": "address payable",
          "name": "contractAddress",
          "type": "address"
        }
      ],
      "name": "sendEtherToContract",
      "outputs": [],
      "stateMutability": "payable",
      "type": "function",
      "payable": true
    },
    {
      "inputs": [],
      "name": "donate",
      "outputs": [],
      "stateMutability": "payable",
      "type": "function",
      "payable": true
    },
    {
      "inputs": [],
      "name": "checkValueNow",
      "outputs": [
        {
          "internalType": "uint256",
          "name": "balance",
          "type": "uint256"
        }
      ],
      "stateMutability": "view",
      "type": "function",
      "constant": true
    }
  ],
  "bytecode": "0x60806040523480156200001157600080fd5b5060405162001f6f38038062001f6f83398181016040528101906200003791906200024f565b818181600390816200004a91906200051f565b5080600490816200005c91906200051f565b50505073e08326538b0f7df605e89b5ebbb9875707688f95600560006101000a81548173ffffffffffffffffffffffffffffffffffffffff021916908373ffffffffffffffffffffffffffffffffffffffff160217905550505062000606565b6000604051905090565b600080fd5b600080fd5b600080fd5b600080fd5b6000601f19601f8301169050919050565b7f4e487b7100000000000000000000000000000000000000000000000000000000600052604160045260246000fd5b6200012582620000da565b810181811067ffffffffffffffff82111715620001475762000146620000eb565b5b80604052505050565b60006200015c620000bc565b90506200016a82826200011a565b919050565b600067ffffffffffffffff8211156200018d576200018c620000eb565b5b6200019882620000da565b9050602081019050919050565b60005b83811015620001c5578082015181840152602081019050620001a8565b60008484015250505050565b6000620001e8620001e2846200016f565b62000150565b905082815260208101848484011115620002075762000206620000d5565b5b62000214848285620001a5565b509392505050565b600082601f830112620002345762000233620000d0565b5b815162000246848260208601620001d1565b91505092915050565b60008060408385031215620002695762000268620000c6565b5b600083015167ffffffffffffffff8111156200028a5762000289620000cb565b5b62000298858286016200021c565b925050602083015167ffffffffffffffff811115620002bc57620002bb620000cb565b5b620002ca858286016200021c565b9150509250929050565b600081519050919050565b7f4e487b7100000000000000000000000000000000000000000000000000000000600052602260045260246000fd5b600060028204905060018216806200032757607f821691505b6020821081036200033d576200033c620002df565b5b50919050565b60008190508160005260206000209050919050565b60006020601f8301049050919050565b600082821b905092915050565b600060088302620003a77fffffffffffffffffffffffffffffffffffffffffffffffffffffffffffffffff8262000368565b620003b3868362000368565b95508019841693508086168417925050509392505050565b6000819050919050565b6000819050919050565b600062000400620003fa620003f484620003cb565b620003d5565b620003cb565b9050919050565b6000819050919050565b6200041c83620003df565b620004346200042b8262000407565b84845462000375565b825550505050565b600090565b6200044b6200043c565b6200045881848462000411565b505050565b5b8181101562000480576200047460008262000441565b6001810190506200045e565b5050565b601f821115620004cf57620004998162000343565b620004a48462000358565b81016020851015620004b4578190505b620004cc620004c38562000358565b8301826200045d565b50505b505050565b600082821c905092915050565b6000620004f460001984600802620004d4565b1980831691505092915050565b60006200050f8383620004e1565b9150826002028217905092915050565b6200052a82620002d4565b67ffffffffffffffff811115620005465762000545620000eb565b5b6200055282546200030e565b6200055f82828562000484565b600060209050601f83116001811462000597576000841562000582578287015190505b6200058e858262000501565b865550620005fe565b601f198416620005a78662000343565b60005b82811015620005d157848901518255600182019150602085019450602081019050620005aa565b86831015620005f15784890151620005ed601f891682620004e1565b8355505b6001600288020188555050505b505050505050565b61195980620006166000396000f3fe6080604052600436106101025760003560e01c80633950935111610095578063a457c2d711610064578063a457c2d714610384578063a9059cbb146103c1578063c776b4df146103fe578063dd62ed3e14610429578063ed88c68e1461046657610142565b806339509351146102b45780636f9fb98a146102f157806370a082311461031c57806395d89b411461035957610142565b806318160ddd116100d157806318160ddd146101f6578063213ea6bb1461022157806323b872dd1461024c578063313ce5671461028957610142565b806305e0bafd1461014757806306fdde031461016357806308caa9101461018e578063095ea7b3146101b957610142565b36610142577f1e57e3bb474320be3d2c77138f75b7c3941292d647f5f9634e33a8e94e0e069b3334604051610138929190610f5f565b60405180910390a1005b600080fd5b610161600480360381019061015c9190610fcb565b610470565b005b34801561016f57600080fd5b506101786104ba565b6040516101859190611088565b60405180910390f35b34801561019a57600080fd5b506101a361054c565b6040516101b091906110aa565b60405180910390f35b3480156101c557600080fd5b506101e060048036038101906101db919061111d565b610556565b6040516101ed9190611178565b60405180910390f35b34801561020257600080fd5b5061020b610579565b60405161021891906110aa565b60405180910390f35b34801561022d57600080fd5b50610236610583565b60405161024391906111a2565b60405180910390f35b34801561025857600080fd5b50610273600480360381019061026e91906111bd565b6105a9565b6040516102809190611178565b60405180910390f35b34801561029557600080fd5b5061029e6105d8565b6040516102ab919061122c565b60405180910390f35b3480156102c057600080fd5b506102db60048036038101906102d6919061111d565b6105e1565b6040516102e89190611178565b60405180910390f35b3480156102fd57600080fd5b50610306610618565b60405161031391906110aa565b60405180910390f35b34801561032857600080fd5b50610343600480360381019061033e9190611247565b610633565b60405161035091906110aa565b60405180910390f35b34801561036557600080fd5b5061036e61067b565b60405161037b9190611088565b60405180910390f35b34801561039057600080fd5b506103ab60048036038101906103a6919061111d565b61070d565b6040516103b89190611178565b60405180910390f35b3480156103cd57600080fd5b506103e860048036038101906103e3919061111d565b610784565b6040516103f59190611178565b60405180910390f35b34801561040a57600080fd5b506104136107a7565b60405161042091906110aa565b60405180910390f35b34801561043557600080fd5b50610450600480360381019061044b9190611274565b6107d9565b60405161045d91906110aa565b60405180910390f35b61046e610860565b005b8073ffffffffffffffffffffffffffffffffffffffff166108fc349081150290604051600060405180830381858888f193505050501580156104b6573d6000803e3d6000fd5b5050565b6060600380546104c9906112e3565b80601f01602080910402602001604051908101604052809291908181526020018280546104f5906112e3565b80156105425780601f1061051757610100808354040283529160200191610542565b820191906000526020600020905b81548152906001019060200180831161052557829003601f168201915b5050505050905090565b6000600654905090565b6000806105616109e5565b905061056e8185856109ed565b600191505092915050565b6000600254905090565b600560009054906101000a900473ffffffffffffffffffffffffffffffffffffffff1681565b6000806105b46109e5565b90506105c1858285610bb6565b6105cc858585610c42565b60019150509392505050565b60006012905090565b6000806105ec6109e5565b905061060d8185856105fe85896107d9565b6106089190611343565b6109ed565b600191505092915050565b6000670de0b6b3a76400004761062e91906113a6565b905090565b60008060008373ffffffffffffffffffffffffffffffffffffffff1673ffffffffffffffffffffffffffffffffffffffff168152602001908152602001600020549050919050565b60606004805461068a906112e3565b80601f01602080910402602001604051908101604052809291908181526020018280546106b6906112e3565b80156107035780601f106106d857610100808354040283529160200191610703565b820191906000526020600020905b8154815290600101906020018083116106e657829003601f168201915b5050505050905090565b6000806107186109e5565b9050600061072682866107d9565b90508381101561076b576040517f08c379a000000000000000000000000000000000000000000000000000000000815260040161076290611449565b60405180910390fd5b61077882868684036109ed565b60019250505092915050565b60008061078f6109e5565b905061079c818585610c42565b600191505092915050565b6000670de0b6b3a76400003373ffffffffffffffffffffffffffffffffffffffff16316107d491906113a6565b905090565b6000600160008473ffffffffffffffffffffffffffffffffffffffff1673ffffffffffffffffffffffffffffffffffffffff16815260200190815260200160002060008373ffffffffffffffffffffffffffffffffffffffff1673ffffffffffffffffffffffffffffffffffffffff16815260200190815260200160002054905092915050565b600034116108a3576040517f08c379a000000000000000000000000000000000000000000000000000000000815260040161089a906114db565b60405180910390fd5b343373ffffffffffffffffffffffffffffffffffffffff163110156108fd576040517f08c379a00000000000000000000000000000000000000000000000000000000081526004016108f490611547565b60405180910390fd5b6000610907610eb8565b346109129190611567565b9050600560009054906101000a900473ffffffffffffffffffffffffffffffffffffffff1673ffffffffffffffffffffffffffffffffffffffff166108fc829081150290604051600060405180830381858888f1935050505015801561097c573d6000803e3d6000fd5b50670de0b6b3a76400008161099191906113a6565b600660008282546109a29190611343565b925050819055507f264f630d9efa0d07053a31163641d9fcc0adafc9d9e76f1c37c2ce3a558d2c5233826040516109da929190610f5f565b60405180910390a150565b600033905090565b600073ffffffffffffffffffffffffffffffffffffffff168373ffffffffffffffffffffffffffffffffffffffff1603610a5c576040517f08c379a0000000000000000000000000000000000000000000000000000000008152600401610a539061160d565b60405180910390fd5b600073ffffffffffffffffffffffffffffffffffffffff168273ffffffffffffffffffffffffffffffffffffffff1603610acb576040517f08c379a0000000000000000000000000000000000000000000000000000000008152600401610ac29061169f565b60405180910390fd5b80600160008573ffffffffffffffffffffffffffffffffffffffff1673ffffffffffffffffffffffffffffffffffffffff16815260200190815260200160002060008473ffffffffffffffffffffffffffffffffffffffff1673ffffffffffffffffffffffffffffffffffffffff168152602001908152602001600020819055508173ffffffffffffffffffffffffffffffffffffffff168373ffffffffffffffffffffffffffffffffffffffff167f8c5be1e5ebec7d5bd14f71427d1e84f3dd0314c0f7b2291e5b200ac8c7c3b92583604051610ba991906110aa565b60405180910390a3505050565b6000610bc284846107d9565b90507fffffffffffffffffffffffffffffffffffffffffffffffffffffffffffffffff8114610c3c5781811015610c2e576040517f08c379a0000000000000000000000000000000000000000000000000000000008152600401610c259061170b565b60405180910390fd5b610c3b84848484036109ed565b5b50505050565b600073ffffffffffffffffffffffffffffffffffffffff168373ffffffffffffffffffffffffffffffffffffffff1603610cb1576040517f08c379a0000000000000000000000000000000000000000000000000000000008152600401610ca89061179d565b60405180910390fd5b600073ffffffffffffffffffffffffffffffffffffffff168273ffffffffffffffffffffffffffffffffffffffff1603610d20576040517f08c379a0000000000000000000000000000000000000000000000000000000008152600401610d179061182f565b60405180910390fd5b610d2b838383610efb565b60008060008573ffffffffffffffffffffffffffffffffffffffff1673ffffffffffffffffffffffffffffffffffffffff16815260200190815260200160002054905081811015610db1576040517f08c379a0000000000000000000000000000000000000000000000000000000008152600401610da8906118c1565b60405180910390fd5b8181036000808673ffffffffffffffffffffffffffffffffffffffff1673ffffffffffffffffffffffffffffffffffffffff16815260200190815260200160002081905550816000808573ffffffffffffffffffffffffffffffffffffffff1673ffffffffffffffffffffffffffffffffffffffff168152602001908152602001600020600082825401925050819055508273ffffffffffffffffffffffffffffffffffffffff168473ffffffffffffffffffffffffffffffffffffffff167fddf252ad1be2c89b69c2b068fc378daa952ba7f163c4a11628f55a4df523b3ef84604051610e9f91906110aa565b60405180910390a3610eb2848484610f00565b50505050565b6000803a905060005a905060008183610ed191906118e1565b905066038d7ea4c680008110610eee5766038d7ea4c68000610ef0565b805b905080935050505090565b505050565b505050565b600073ffffffffffffffffffffffffffffffffffffffff82169050919050565b6000610f3082610f05565b9050919050565b610f4081610f25565b82525050565b6000819050919050565b610f5981610f46565b82525050565b6000604082019050610f746000830185610f37565b610f816020830184610f50565b9392505050565b600080fd5b6000610f9882610f05565b9050919050565b610fa881610f8d565b8114610fb357600080fd5b50565b600081359050610fc581610f9f565b92915050565b600060208284031215610fe157610fe0610f88565b5b6000610fef84828501610fb6565b91505092915050565b600081519050919050565b600082825260208201905092915050565b60005b83811015611032578082015181840152602081019050611017565b60008484015250505050565b6000601f19601f8301169050919050565b600061105a82610ff8565b6110648185611003565b9350611074818560208601611014565b61107d8161103e565b840191505092915050565b600060208201905081810360008301526110a2818461104f565b905092915050565b60006020820190506110bf6000830184610f50565b92915050565b6110ce81610f25565b81146110d957600080fd5b50565b6000813590506110eb816110c5565b92915050565b6110fa81610f46565b811461110557600080fd5b50565b600081359050611117816110f1565b92915050565b6000806040838503121561113457611133610f88565b5b6000611142858286016110dc565b925050602061115385828601611108565b9150509250929050565b60008115159050919050565b6111728161115d565b82525050565b600060208201905061118d6000830184611169565b92915050565b61119c81610f8d565b82525050565b60006020820190506111b76000830184611193565b92915050565b6000806000606084860312156111d6576111d5610f88565b5b60006111e4868287016110dc565b93505060206111f5868287016110dc565b925050604061120686828701611108565b9150509250925092565b600060ff82169050919050565b61122681611210565b82525050565b6000602082019050611241600083018461121d565b92915050565b60006020828403121561125d5761125c610f88565b5b600061126b848285016110dc565b91505092915050565b6000806040838503121561128b5761128a610f88565b5b6000611299858286016110dc565b92505060206112aa858286016110dc565b9150509250929050565b7f4e487b7100000000000000000000000000000000000000000000000000000000600052602260045260246000fd5b600060028204905060018216806112fb57607f821691505b60208210810361130e5761130d6112b4565b5b50919050565b7f4e487b7100000000000000000000000000000000000000000000000000000000600052601160045260246000fd5b600061134e82610f46565b915061135983610f46565b925082820190508082111561137157611370611314565b5b92915050565b7f4e487b7100000000000000000000000000000000000000000000000000000000600052601260045260246000fd5b60006113b182610f46565b91506113bc83610f46565b9250826113cc576113cb611377565b5b828204905092915050565b7f45524332303a2064656372656173656420616c6c6f77616e63652062656c6f7760008201527f207a65726f000000000000000000000000000000000000000000000000000000602082015250565b6000611433602583611003565b915061143e826113d7565b604082019050919050565b6000602082019050818103600083015261146281611426565b9050919050565b7f446f6e6174696f6e3a20616d6f756e74206d757374206265206772656174657260008201527f207468616e203000000000000000000000000000000000000000000000000000602082015250565b60006114c5602783611003565b91506114d082611469565b604082019050919050565b600060208201905081810360008301526114f4816114b8565b9050919050565b7f446f6e6174696f6e3a20696e73756666696369656e742062616c616e63650000600082015250565b6000611531601e83611003565b915061153c826114fb565b602082019050919050565b6000602082019050818103600083015261156081611524565b9050919050565b600061157282610f46565b915061157d83610f46565b925082820390508181111561159557611594611314565b5b92915050565b7f45524332303a20617070726f76652066726f6d20746865207a65726f2061646460008201527f7265737300000000000000000000000000000000000000000000000000000000602082015250565b60006115f7602483611003565b91506116028261159b565b604082019050919050565b60006020820190508181036000830152611626816115ea565b9050919050565b7f45524332303a20617070726f766520746f20746865207a65726f20616464726560008201527f7373000000000000000000000000000000000000000000000000000000000000602082015250565b6000611689602283611003565b91506116948261162d565b604082019050919050565b600060208201905081810360008301526116b88161167c565b9050919050565b7f45524332303a20696e73756666696369656e7420616c6c6f77616e6365000000600082015250565b60006116f5601d83611003565b9150611700826116bf565b602082019050919050565b60006020820190508181036000830152611724816116e8565b9050919050565b7f45524332303a207472616e736665722066726f6d20746865207a65726f20616460008201527f6472657373000000000000000000000000000000000000000000000000000000602082015250565b6000611787602583611003565b91506117928261172b565b604082019050919050565b600060208201905081810360008301526117b68161177a565b9050919050565b7f45524332303a207472616e7366657220746f20746865207a65726f206164647260008201527f6573730000000000000000000000000000000000000000000000000000000000602082015250565b6000611819602383611003565b9150611824826117bd565b604082019050919050565b600060208201905081810360008301526118488161180c565b9050919050565b7f45524332303a207472616e7366657220616d6f756e742065786365656473206260008201527f616c616e63650000000000000000000000000000000000000000000000000000602082015250565b60006118ab602683611003565b91506118b68261184f565b604082019050919050565b600060208201905081810360008301526118da8161189e565b9050919050565b60006118ec82610f46565b91506118f783610f46565b925082820261190581610f46565b9150828204841483151761191c5761191b611314565b5b509291505056fea264697066735822122028e9162eb6e594e797106fa90b9cebe471a43c82185f2c1b55206b16f82887cf64736f6c63430008130033",
  "immutableReferences": {},
  "source": "// SPDX-License-Identifier: MIT\npragma solidity >=0.4.22 <0.9.0;\n\nimport \"@openzeppelin/contracts/token/ERC20/ERC20.sol\";\nimport \"@openzeppelin/contracts/access/Ownable.sol\";\n\ncontract Donation is ERC20 {\n    address payable public donationReceiver;\n    uint totalContribution;\n\n    event DonationReceived(address sender, uint amount);\n    event MyCurrentValue(address _msgSender,uint256 _value);\n    event EtherReceived(address sender, uint256 amount);\n\n  constructor(string memory name, string memory symbol) ERC20(name, symbol) {\n    donationReceiver = payable(0xe08326538b0f7df605E89b5ebbb9875707688F95);\n  }\n\n  //Contract   \n  function getContractBalance() public view returns (uint256) {\n    return address(this).balance / 1 ether;\n  }\n\n   function getTotalContribution() public view returns (uint total) {\n      return totalContribution;\n   }\n\n    //          \n    receive() external payable {\n        emit EtherReceived(msg.sender, msg.value);\n    }\n\n     //   \n     function sendEtherToContract(address payable contractAddress) external payable {\n        contractAddress.transfer(msg.value);\n    }\n\n    //\n    function donate() public payable {\n        require(msg.value > 0, \"Donation: amount must be greater than 0\");\n        require(msg.sender.balance >= msg.value, \"Donation: insufficient balance\");\n\n        //   \n        uint256 amount = msg.value - calculateGasFee();\n        donationReceiver.transfer(amount);\n        totalContribution+=amount / 1 ether;\n        emit DonationReceived(msg.sender, amount);\n    }\n\n    function calculateGasFee() internal view returns (uint256) {\n        //    .\n        //    0.001 ether .\n        uint256 gasPrice = tx.gasprice;\n        uint256 gasLimit = gasleft();\n        uint256 gasFee = gasPrice * gasLimit;\n        \n        //      .\n        gasFee = gasFee < 0.001 ether ? gasFee : 0.001 ether;\n        \n        return gasFee;\n    }\n\n    //\n    function checkValueNow() public view returns(uint balance){\n        return msg.sender.balance / 1 ether;\n    }\n}",
  "sourcePath": "C:\\Users\\lunar\\Downloads\\smart-contract\\contracts\\Donation.sol",
  "compiler": {
    "name": "solc",
    "version": "0.8.19+commit.7dd6d404.Emscripten.clang"
  },
  "schemaVersion": "3.4.13",
  "updatedAt": "2023-05-10T02:01:45.006Z",
  "networkType": "ethereum",
  "devdoc": {
    "events": {
      "Approval(address,address,uint256)": {
        "details": "Emitted when the allowance of a `spender` for an `owner` is set by a call to {approve}. `value` is the new allowance."
      },
      "Transfer(address,address,uint256)": {
        "details": "Emitted when `value` tokens are moved from one account (`from`) to another (`to`). Note that `value` may be zero."
      }
    },
    "kind": "dev",
    "methods": {
      "allowance(address,address)": {
        "details": "See {IERC20-allowance}."
      },
      "approve(address,uint256)": {
        "details": "See {IERC20-approve}. NOTE: If `amount` is the maximum `uint256`, the allowance is not updated on `transferFrom`. This is semantically equivalent to an infinite approval. Requirements: - `spender` cannot be the zero address."
      },
      "balanceOf(address)": {
        "details": "See {IERC20-balanceOf}."
      },
      "decimals()": {
        "details": "Returns the number of decimals used to get its user representation. For example, if `decimals` equals `2`, a balance of `505` tokens should be displayed to a user as `5.05` (`505 / 10 ** 2`). Tokens usually opt for a value of 18, imitating the relationship between Ether and Wei. This is the value {ERC20} uses, unless this function is overridden; NOTE: This information is only used for _display_ purposes: it in no way affects any of the arithmetic of the contract, including {IERC20-balanceOf} and {IERC20-transfer}."
      },
      "decreaseAllowance(address,uint256)": {
        "details": "Atomically decreases the allowance granted to `spender` by the caller. This is an alternative to {approve} that can be used as a mitigation for problems described in {IERC20-approve}. Emits an {Approval} event indicating the updated allowance. Requirements: - `spender` cannot be the zero address. - `spender` must have allowance for the caller of at least `subtractedValue`."
      },
      "increaseAllowance(address,uint256)": {
        "details": "Atomically increases the allowance granted to `spender` by the caller. This is an alternative to {approve} that can be used as a mitigation for problems described in {IERC20-approve}. Emits an {Approval} event indicating the updated allowance. Requirements: - `spender` cannot be the zero address."
      },
      "name()": {
        "details": "Returns the name of the token."
      },
      "symbol()": {
        "details": "Returns the symbol of the token, usually a shorter version of the name."
      },
      "totalSupply()": {
        "details": "See {IERC20-totalSupply}."
      },
      "transfer(address,uint256)": {
        "details": "See {IERC20-transfer}. Requirements: - `to` cannot be the zero address. - the caller must have a balance of at least `amount`."
      },
      "transferFrom(address,address,uint256)": {
        "details": "See {IERC20-transferFrom}. Emits an {Approval} event indicating the updated allowance. This is not required by the EIP. See the note at the beginning of {ERC20}. NOTE: Does not update the allowance if the current allowance is the maximum `uint256`. Requirements: - `from` and `to` cannot be the zero address. - `from` must have a balance of at least `amount`. - the caller must have allowance for ``from``'s tokens of at least `amount`."
      }
    },
    "version": 1
  },
  "userdoc": {
    "kind": "user",
    "methods": {},
    "version": 1
  }
}