{
  "contractName": "BirdNFT",
  "abi": [
    {
      "inputs": [],
      "stateMutability": "nonpayable",
      "type": "constructor"
    },
    {
      "anonymous": false,
      "inputs": [
        {
          "indexed": true,
          "internalType": "address",
          "name": "owner",
          "type": "address"
        },
        {
          "indexed": true,
          "internalType": "address",
          "name": "approved",
          "type": "address"
        },
        {
          "indexed": true,
          "internalType": "uint256",
          "name": "tokenId",
          "type": "uint256"
        }
      ],
      "name": "Approval",
      "type": "event"
    },
    {
      "anonymous": false,
      "inputs": [
        {
          "indexed": true,
          "internalType": "address",
          "name": "owner",
          "type": "address"
        },
        {
          "indexed": true,
          "internalType": "address",
          "name": "operator",
          "type": "address"
        },
        {
          "indexed": false,
          "internalType": "bool",
          "name": "approved",
          "type": "bool"
        }
      ],
      "name": "ApprovalForAll",
      "type": "event"
    },
    {
      "anonymous": false,
      "inputs": [
        {
          "indexed": true,
          "internalType": "address",
          "name": "previousOwner",
          "type": "address"
        },
        {
          "indexed": true,
          "internalType": "address",
          "name": "newOwner",
          "type": "address"
        }
      ],
      "name": "OwnershipTransferred",
      "type": "event"
    },
    {
      "anonymous": false,
      "inputs": [
        {
          "indexed": true,
          "internalType": "address",
          "name": "from",
          "type": "address"
        },
        {
          "indexed": true,
          "internalType": "address",
          "name": "to",
          "type": "address"
        },
        {
          "indexed": true,
          "internalType": "uint256",
          "name": "tokenId",
          "type": "uint256"
        }
      ],
      "name": "Transfer",
      "type": "event"
    },
    {
      "inputs": [
        {
          "internalType": "address",
          "name": "to",
          "type": "address"
        },
        {
          "internalType": "uint256",
          "name": "tokenId",
          "type": "uint256"
        }
      ],
      "name": "approve",
      "outputs": [],
      "stateMutability": "nonpayable",
      "type": "function"
    },
    {
      "inputs": [
        {
          "internalType": "address",
          "name": "owner",
          "type": "address"
        }
      ],
      "name": "balanceOf",
      "outputs": [
        {
          "internalType": "uint256",
          "name": "",
          "type": "uint256"
        }
      ],
      "stateMutability": "view",
      "type": "function",
      "constant": true
    },
    {
      "inputs": [
        {
          "internalType": "uint256",
          "name": "tokenId",
          "type": "uint256"
        }
      ],
      "name": "getApproved",
      "outputs": [
        {
          "internalType": "address",
          "name": "",
          "type": "address"
        }
      ],
      "stateMutability": "view",
      "type": "function",
      "constant": true
    },
    {
      "inputs": [
        {
          "internalType": "address",
          "name": "owner",
          "type": "address"
        },
        {
          "internalType": "address",
          "name": "operator",
          "type": "address"
        }
      ],
      "name": "isApprovedForAll",
      "outputs": [
        {
          "internalType": "bool",
          "name": "",
          "type": "bool"
        }
      ],
      "stateMutability": "view",
      "type": "function",
      "constant": true
    },
    {
      "inputs": [],
      "name": "name",
      "outputs": [
        {
          "internalType": "string",
          "name": "",
          "type": "string"
        }
      ],
      "stateMutability": "view",
      "type": "function",
      "constant": true
    },
    {
      "inputs": [],
      "name": "owner",
      "outputs": [
        {
          "internalType": "address",
          "name": "",
          "type": "address"
        }
      ],
      "stateMutability": "view",
      "type": "function",
      "constant": true
    },
    {
      "inputs": [
        {
          "internalType": "uint256",
          "name": "tokenId",
          "type": "uint256"
        }
      ],
      "name": "ownerOf",
      "outputs": [
        {
          "internalType": "address",
          "name": "",
          "type": "address"
        }
      ],
      "stateMutability": "view",
      "type": "function",
      "constant": true
    },
    {
      "inputs": [],
      "name": "renounceOwnership",
      "outputs": [],
      "stateMutability": "nonpayable",
      "type": "function"
    },
    {
      "inputs": [
        {
          "internalType": "address",
          "name": "from",
          "type": "address"
        },
        {
          "internalType": "address",
          "name": "to",
          "type": "address"
        },
        {
          "internalType": "uint256",
          "name": "tokenId",
          "type": "uint256"
        }
      ],
      "name": "safeTransferFrom",
      "outputs": [],
      "stateMutability": "nonpayable",
      "type": "function"
    },
    {
      "inputs": [
        {
          "internalType": "address",
          "name": "from",
          "type": "address"
        },
        {
          "internalType": "address",
          "name": "to",
          "type": "address"
        },
        {
          "internalType": "uint256",
          "name": "tokenId",
          "type": "uint256"
        },
        {
          "internalType": "bytes",
          "name": "data",
          "type": "bytes"
        }
      ],
      "name": "safeTransferFrom",
      "outputs": [],
      "stateMutability": "nonpayable",
      "type": "function"
    },
    {
      "inputs": [
        {
          "internalType": "address",
          "name": "operator",
          "type": "address"
        },
        {
          "internalType": "bool",
          "name": "approved",
          "type": "bool"
        }
      ],
      "name": "setApprovalForAll",
      "outputs": [],
      "stateMutability": "nonpayable",
      "type": "function"
    },
    {
      "inputs": [
        {
          "internalType": "bytes4",
          "name": "interfaceId",
          "type": "bytes4"
        }
      ],
      "name": "supportsInterface",
      "outputs": [
        {
          "internalType": "bool",
          "name": "",
          "type": "bool"
        }
      ],
      "stateMutability": "view",
      "type": "function",
      "constant": true
    },
    {
      "inputs": [],
      "name": "symbol",
      "outputs": [
        {
          "internalType": "string",
          "name": "",
          "type": "string"
        }
      ],
      "stateMutability": "view",
      "type": "function",
      "constant": true
    },
    {
      "inputs": [
        {
          "internalType": "address",
          "name": "from",
          "type": "address"
        },
        {
          "internalType": "address",
          "name": "to",
          "type": "address"
        },
        {
          "internalType": "uint256",
          "name": "tokenId",
          "type": "uint256"
        }
      ],
      "name": "transferFrom",
      "outputs": [],
      "stateMutability": "nonpayable",
      "type": "function"
    },
    {
      "inputs": [
        {
          "internalType": "address",
          "name": "newOwner",
          "type": "address"
        }
      ],
      "name": "transferOwnership",
      "outputs": [],
      "stateMutability": "nonpayable",
      "type": "function"
    },
    {
      "inputs": [
        {
          "internalType": "address",
          "name": "recipient",
          "type": "address"
        },
        {
          "internalType": "string",
          "name": "imgURI",
          "type": "string"
        }
      ],
      "name": "createNFT",
      "outputs": [
        {
          "internalType": "uint256",
          "name": "",
          "type": "uint256"
        }
      ],
      "stateMutability": "nonpayable",
      "type": "function"
    },
    {
      "inputs": [
        {
          "internalType": "uint256",
          "name": "tokenId",
          "type": "uint256"
        }
      ],
      "name": "tokenURI",
      "outputs": [
        {
          "internalType": "string",
          "name": "",
          "type": "string"
        }
      ],
      "stateMutability": "view",
      "type": "function",
      "constant": true
    },
    {
      "inputs": [
        {
          "internalType": "uint256",
          "name": "tokenId",
          "type": "uint256"
        }
      ],
      "name": "deleteNFT",
      "outputs": [],
      "stateMutability": "nonpayable",
      "type": "function"
    }
  ],
  "bytecode": "0x60806040523480156200001157600080fd5b506040518060400160405280600781526020017f426972644e4654000000000000000000000000000000000000000000000000008152506040518060400160405280600481526020017f424e46540000000000000000000000000000000000000000000000000000000081525081600090816200008f919062000412565b508060019081620000a1919062000412565b505050620000c4620000b8620000ca60201b60201c565b620000d260201b60201c565b620004f9565b600033905090565b6000600760009054906101000a900473ffffffffffffffffffffffffffffffffffffffff16905081600760006101000a81548173ffffffffffffffffffffffffffffffffffffffff021916908373ffffffffffffffffffffffffffffffffffffffff1602179055508173ffffffffffffffffffffffffffffffffffffffff168173ffffffffffffffffffffffffffffffffffffffff167f8be0079c531659141344cd1fd0a4f28419497f9722a3daafe3b4186f6b6457e060405160405180910390a35050565b600081519050919050565b7f4e487b7100000000000000000000000000000000000000000000000000000000600052604160045260246000fd5b7f4e487b7100000000000000000000000000000000000000000000000000000000600052602260045260246000fd5b600060028204905060018216806200021a57607f821691505b60208210810362000230576200022f620001d2565b5b50919050565b60008190508160005260206000209050919050565b60006020601f8301049050919050565b600082821b905092915050565b6000600883026200029a7fffffffffffffffffffffffffffffffffffffffffffffffffffffffffffffffff826200025b565b620002a686836200025b565b95508019841693508086168417925050509392505050565b6000819050919050565b6000819050919050565b6000620002f3620002ed620002e784620002be565b620002c8565b620002be565b9050919050565b6000819050919050565b6200030f83620002d2565b620003276200031e82620002fa565b84845462000268565b825550505050565b600090565b6200033e6200032f565b6200034b81848462000304565b505050565b5b8181101562000373576200036760008262000334565b60018101905062000351565b5050565b601f821115620003c2576200038c8162000236565b62000397846200024b565b81016020851015620003a7578190505b620003bf620003b6856200024b565b83018262000350565b50505b505050565b600082821c905092915050565b6000620003e760001984600802620003c7565b1980831691505092915050565b6000620004028383620003d4565b9150826002028217905092915050565b6200041d8262000198565b67ffffffffffffffff811115620004395762000438620001a3565b5b62000445825462000201565b6200045282828562000377565b600060209050601f8311600181146200048a576000841562000475578287015190505b620004818582620003f4565b865550620004f1565b601f1984166200049a8662000236565b60005b82811015620004c4578489015182556001820191506020850194506020810190506200049d565b86831015620004e45784890151620004e0601f891682620003d4565b8355505b6001600288020188555050505b505050505050565b61300380620005096000396000f3fe608060405234801561001057600080fd5b50600436106101165760003560e01c80638da5cb5b116100a2578063b88d4fde11610071578063b88d4fde146102df578063c87b56dd146102fb578063e985e9c51461032b578063f2fde38b1461035b578063f687ed571461037757610116565b80638da5cb5b1461025757806395d89b4114610275578063a22cb46514610293578063a5614033146102af57610116565b806323b872dd116100e957806323b872dd146101b557806342842e0e146101d15780636352211e146101ed57806370a082311461021d578063715018a61461024d57610116565b806301ffc9a71461011b57806306fdde031461014b578063081812fc14610169578063095ea7b314610199575b600080fd5b61013560048036038101906101309190611df4565b610393565b6040516101429190611e3c565b60405180910390f35b610153610475565b6040516101609190611ee7565b60405180910390f35b610183600480360381019061017e9190611f3f565b610507565b6040516101909190611fad565b60405180910390f35b6101b360048036038101906101ae9190611ff4565b61054d565b005b6101cf60048036038101906101ca9190612034565b610664565b005b6101eb60048036038101906101e69190612034565b6106c4565b005b61020760048036038101906102029190611f3f565b6106e4565b6040516102149190611fad565b60405180910390f35b61023760048036038101906102329190612087565b61076a565b60405161024491906120c3565b60405180910390f35b610255610821565b005b61025f610835565b60405161026c9190611fad565b60405180910390f35b61027d61085f565b60405161028a9190611ee7565b60405180910390f35b6102ad60048036038101906102a8919061210a565b6108f1565b005b6102c960048036038101906102c4919061227f565b610907565b6040516102d691906120c3565b60405180910390f35b6102f960048036038101906102f4919061237c565b610947565b005b61031560048036038101906103109190611f3f565b6109a9565b6040516103229190611ee7565b60405180910390f35b610345600480360381019061034091906123ff565b6109bb565b6040516103529190611e3c565b60405180910390f35b61037560048036038101906103709190612087565b610a4f565b005b610391600480360381019061038c9190611f3f565b610ad2565b005b60007f80ac58cd000000000000000000000000000000000000000000000000000000007bffffffffffffffffffffffffffffffffffffffffffffffffffffffff1916827bffffffffffffffffffffffffffffffffffffffffffffffffffffffff1916148061045e57507f5b5e139f000000000000000000000000000000000000000000000000000000007bffffffffffffffffffffffffffffffffffffffffffffffffffffffff1916827bffffffffffffffffffffffffffffffffffffffffffffffffffffffff1916145b8061046e575061046d82610ae6565b5b9050919050565b6060600080546104849061246e565b80601f01602080910402602001604051908101604052809291908181526020018280546104b09061246e565b80156104fd5780601f106104d2576101008083540402835291602001916104fd565b820191906000526020600020905b8154815290600101906020018083116104e057829003601f168201915b5050505050905090565b600061051282610b50565b6004600083815260200190815260200160002060009054906101000a900473ffffffffffffffffffffffffffffffffffffffff169050919050565b6000610558826106e4565b90508073ffffffffffffffffffffffffffffffffffffffff168373ffffffffffffffffffffffffffffffffffffffff16036105c8576040517f08c379a00000000000000000000000000000000000000000000000000000000081526004016105bf90612511565b60405180910390fd5b8073ffffffffffffffffffffffffffffffffffffffff166105e7610b9b565b73ffffffffffffffffffffffffffffffffffffffff161480610616575061061581610610610b9b565b6109bb565b5b610655576040517f08c379a000000000000000000000000000000000000000000000000000000000815260040161064c906125a3565b60405180910390fd5b61065f8383610ba3565b505050565b61067561066f610b9b565b82610c5c565b6106b4576040517f08c379a00000000000000000000000000000000000000000000000000000000081526004016106ab90612635565b60405180910390fd5b6106bf838383610cf1565b505050565b6106df83838360405180602001604052806000815250610947565b505050565b6000806106f083610fea565b9050600073ffffffffffffffffffffffffffffffffffffffff168173ffffffffffffffffffffffffffffffffffffffff1603610761576040517f08c379a0000000000000000000000000000000000000000000000000000000008152600401610758906126a1565b60405180910390fd5b80915050919050565b60008073ffffffffffffffffffffffffffffffffffffffff168273ffffffffffffffffffffffffffffffffffffffff16036107da576040517f08c379a00000000000000000000000000000000000000000000000000000000081526004016107d190612733565b60405180910390fd5b600360008373ffffffffffffffffffffffffffffffffffffffff1673ffffffffffffffffffffffffffffffffffffffff168152602001908152602001600020549050919050565b610829611027565b61083360006110a5565b565b6000600760009054906101000a900473ffffffffffffffffffffffffffffffffffffffff16905090565b60606001805461086e9061246e565b80601f016020809104026020016040519081016040528092919081815260200182805461089a9061246e565b80156108e75780601f106108bc576101008083540402835291602001916108e7565b820191906000526020600020905b8154815290600101906020018083116108ca57829003601f168201915b5050505050905090565b6109036108fc610b9b565b838361116b565b5050565b6000610911611027565b61091b60086112d7565b600061092760086112ed565b905061093384826112fb565b61093d8184611518565b8091505092915050565b610958610952610b9b565b83610c5c565b610997576040517f08c379a000000000000000000000000000000000000000000000000000000000815260040161098e90612635565b60405180910390fd5b6109a384848484611585565b50505050565b60606109b4826115e1565b9050919050565b6000600560008473ffffffffffffffffffffffffffffffffffffffff1673ffffffffffffffffffffffffffffffffffffffff16815260200190815260200160002060008373ffffffffffffffffffffffffffffffffffffffff1673ffffffffffffffffffffffffffffffffffffffff16815260200190815260200160002060009054906101000a900460ff16905092915050565b610a57611027565b600073ffffffffffffffffffffffffffffffffffffffff168173ffffffffffffffffffffffffffffffffffffffff1603610ac6576040517f08c379a0000000000000000000000000000000000000000000000000000000008152600401610abd906127c5565b60405180910390fd5b610acf816110a5565b50565b610ada611027565b610ae3816116f3565b50565b60007f01ffc9a7000000000000000000000000000000000000000000000000000000007bffffffffffffffffffffffffffffffffffffffffffffffffffffffff1916827bffffffffffffffffffffffffffffffffffffffffffffffffffffffff1916149050919050565b610b5981611746565b610b98576040517f08c379a0000000000000000000000000000000000000000000000000000000008152600401610b8f906126a1565b60405180910390fd5b50565b600033905090565b816004600083815260200190815260200160002060006101000a81548173ffffffffffffffffffffffffffffffffffffffff021916908373ffffffffffffffffffffffffffffffffffffffff160217905550808273ffffffffffffffffffffffffffffffffffffffff16610c16836106e4565b73ffffffffffffffffffffffffffffffffffffffff167f8c5be1e5ebec7d5bd14f71427d1e84f3dd0314c0f7b2291e5b200ac8c7c3b92560405160405180910390a45050565b600080610c68836106e4565b90508073ffffffffffffffffffffffffffffffffffffffff168473ffffffffffffffffffffffffffffffffffffffff161480610caa5750610ca981856109bb565b5b80610ce857508373ffffffffffffffffffffffffffffffffffffffff16610cd084610507565b73ffffffffffffffffffffffffffffffffffffffff16145b91505092915050565b8273ffffffffffffffffffffffffffffffffffffffff16610d11826106e4565b73ffffffffffffffffffffffffffffffffffffffff1614610d67576040517f08c379a0000000000000000000000000000000000000000000000000000000008152600401610d5e90612857565b60405180910390fd5b600073ffffffffffffffffffffffffffffffffffffffff168273ffffffffffffffffffffffffffffffffffffffff1603610dd6576040517f08c379a0000000000000000000000000000000000000000000000000000000008152600401610dcd906128e9565b60405180910390fd5b610de38383836001611787565b8273ffffffffffffffffffffffffffffffffffffffff16610e03826106e4565b73ffffffffffffffffffffffffffffffffffffffff1614610e59576040517f08c379a0000000000000000000000000000000000000000000000000000000008152600401610e5090612857565b60405180910390fd5b6004600082815260200190815260200160002060006101000a81549073ffffffffffffffffffffffffffffffffffffffff02191690556001600360008573ffffffffffffffffffffffffffffffffffffffff1673ffffffffffffffffffffffffffffffffffffffff168152602001908152602001600020600082825403925050819055506001600360008473ffffffffffffffffffffffffffffffffffffffff1673ffffffffffffffffffffffffffffffffffffffff16815260200190815260200160002060008282540192505081905550816002600083815260200190815260200160002060006101000a81548173ffffffffffffffffffffffffffffffffffffffff021916908373ffffffffffffffffffffffffffffffffffffffff160217905550808273ffffffffffffffffffffffffffffffffffffffff168473ffffffffffffffffffffffffffffffffffffffff167fddf252ad1be2c89b69c2b068fc378daa952ba7f163c4a11628f55a4df523b3ef60405160405180910390a4610fe5838383600161178d565b505050565b60006002600083815260200190815260200160002060009054906101000a900473ffffffffffffffffffffffffffffffffffffffff169050919050565b61102f610b9b565b73ffffffffffffffffffffffffffffffffffffffff1661104d610835565b73ffffffffffffffffffffffffffffffffffffffff16146110a3576040517f08c379a000000000000000000000000000000000000000000000000000000000815260040161109a90612955565b60405180910390fd5b565b6000600760009054906101000a900473ffffffffffffffffffffffffffffffffffffffff16905081600760006101000a81548173ffffffffffffffffffffffffffffffffffffffff021916908373ffffffffffffffffffffffffffffffffffffffff1602179055508173ffffffffffffffffffffffffffffffffffffffff168173ffffffffffffffffffffffffffffffffffffffff167f8be0079c531659141344cd1fd0a4f28419497f9722a3daafe3b4186f6b6457e060405160405180910390a35050565b8173ffffffffffffffffffffffffffffffffffffffff168373ffffffffffffffffffffffffffffffffffffffff16036111d9576040517f08c379a00000000000000000000000000000000000000000000000000000000081526004016111d0906129c1565b60405180910390fd5b80600560008573ffffffffffffffffffffffffffffffffffffffff1673ffffffffffffffffffffffffffffffffffffffff16815260200190815260200160002060008473ffffffffffffffffffffffffffffffffffffffff1673ffffffffffffffffffffffffffffffffffffffff16815260200190815260200160002060006101000a81548160ff0219169083151502179055508173ffffffffffffffffffffffffffffffffffffffff168373ffffffffffffffffffffffffffffffffffffffff167f17307eab39ab6107e8899845ad3d59bd9653f200f220920489ca2b5937696c31836040516112ca9190611e3c565b60405180910390a3505050565b6001816000016000828254019250508190555050565b600081600001549050919050565b600073ffffffffffffffffffffffffffffffffffffffff168273ffffffffffffffffffffffffffffffffffffffff160361136a576040517f08c379a000000000000000000000000000000000000000000000000000000000815260040161136190612a2d565b60405180910390fd5b61137381611746565b156113b3576040517f08c379a00000000000000000000000000000000000000000000000000000000081526004016113aa90612a99565b60405180910390fd5b6113c1600083836001611787565b6113ca81611746565b1561140a576040517f08c379a000000000000000000000000000000000000000000000000000000000815260040161140190612a99565b60405180910390fd5b6001600360008473ffffffffffffffffffffffffffffffffffffffff1673ffffffffffffffffffffffffffffffffffffffff16815260200190815260200160002060008282540192505081905550816002600083815260200190815260200160002060006101000a81548173ffffffffffffffffffffffffffffffffffffffff021916908373ffffffffffffffffffffffffffffffffffffffff160217905550808273ffffffffffffffffffffffffffffffffffffffff16600073ffffffffffffffffffffffffffffffffffffffff167fddf252ad1be2c89b69c2b068fc378daa952ba7f163c4a11628f55a4df523b3ef60405160405180910390a461151460008383600161178d565b5050565b61152182611746565b611560576040517f08c379a000000000000000000000000000000000000000000000000000000000815260040161155790612b2b565b60405180910390fd5b806006600084815260200190815260200160002090816115809190612cf7565b505050565b611590848484610cf1565b61159c84848484611793565b6115db576040517f08c379a00000000000000000000000000000000000000000000000000000000081526004016115d290612e3b565b60405180910390fd5b50505050565b60606115ec82610b50565b600060066000848152602001908152602001600020805461160c9061246e565b80601f01602080910402602001604051908101604052809291908181526020018280546116389061246e565b80156116855780601f1061165a57610100808354040283529160200191611685565b820191906000526020600020905b81548152906001019060200180831161166857829003601f168201915b50505050509050600061169661191a565b905060008151036116ab5781925050506116ee565b6000825111156116e05780826040516020016116c8929190612e97565b604051602081830303815290604052925050506116ee565b6116e984611931565b925050505b919050565b6116fc81611999565b600060066000838152602001908152602001600020805461171c9061246e565b905014611743576006600082815260200190815260200160002060006117429190611d2b565b5b50565b60008073ffffffffffffffffffffffffffffffffffffffff1661176883610fea565b73ffffffffffffffffffffffffffffffffffffffff1614159050919050565b50505050565b50505050565b60006117b48473ffffffffffffffffffffffffffffffffffffffff16611ae7565b1561190d578373ffffffffffffffffffffffffffffffffffffffff1663150b7a026117dd610b9b565b8786866040518563ffffffff1660e01b81526004016117ff9493929190612f10565b6020604051808303816000875af192505050801561183b57506040513d601f19601f820116820180604052508101906118389190612f71565b60015b6118bd573d806000811461186b576040519150601f19603f3d011682016040523d82523d6000602084013e611870565b606091505b5060008151036118b5576040517f08c379a00000000000000000000000000000000000000000000000000000000081526004016118ac90612e3b565b60405180910390fd5b805181602001fd5b63150b7a0260e01b7bffffffffffffffffffffffffffffffffffffffffffffffffffffffff1916817bffffffffffffffffffffffffffffffffffffffffffffffffffffffff191614915050611912565b600190505b949350505050565b606060405180602001604052806000815250905090565b606061193c82610b50565b600061194661191a565b905060008151116119665760405180602001604052806000815250611991565b8061197084611b0a565b604051602001611981929190612e97565b6040516020818303038152906040525b915050919050565b60006119a4826106e4565b90506119b4816000846001611787565b6119bd826106e4565b90506004600083815260200190815260200160002060006101000a81549073ffffffffffffffffffffffffffffffffffffffff02191690556001600360008373ffffffffffffffffffffffffffffffffffffffff1673ffffffffffffffffffffffffffffffffffffffff168152602001908152602001600020600082825403925050819055506002600083815260200190815260200160002060006101000a81549073ffffffffffffffffffffffffffffffffffffffff021916905581600073ffffffffffffffffffffffffffffffffffffffff168273ffffffffffffffffffffffffffffffffffffffff167fddf252ad1be2c89b69c2b068fc378daa952ba7f163c4a11628f55a4df523b3ef60405160405180910390a4611ae381600084600161178d565b5050565b6000808273ffffffffffffffffffffffffffffffffffffffff163b119050919050565b606060006001611b1984611bd8565b01905060008167ffffffffffffffff811115611b3857611b37612154565b5b6040519080825280601f01601f191660200182016040528015611b6a5781602001600182028036833780820191505090505b509050600082602001820190505b600115611bcd578080600190039150507f3031323334353637383961626364656600000000000000000000000000000000600a86061a8153600a8581611bc157611bc0612f9e565b5b04945060008503611b78575b819350505050919050565b600080600090507a184f03e93ff9f4daa797ed6e38ed64bf6a1f0100000000000000008310611c36577a184f03e93ff9f4daa797ed6e38ed64bf6a1f0100000000000000008381611c2c57611c2b612f9e565b5b0492506040810190505b6d04ee2d6d415b85acef81000000008310611c73576d04ee2d6d415b85acef81000000008381611c6957611c68612f9e565b5b0492506020810190505b662386f26fc100008310611ca257662386f26fc100008381611c9857611c97612f9e565b5b0492506010810190505b6305f5e1008310611ccb576305f5e1008381611cc157611cc0612f9e565b5b0492506008810190505b6127108310611cf0576127108381611ce657611ce5612f9e565b5b0492506004810190505b60648310611d135760648381611d0957611d08612f9e565b5b0492506002810190505b600a8310611d22576001810190505b80915050919050565b508054611d379061246e565b6000825580601f10611d495750611d68565b601f016020900490600052602060002090810190611d679190611d6b565b5b50565b5b80821115611d84576000816000905550600101611d6c565b5090565b6000604051905090565b600080fd5b600080fd5b60007fffffffff0000000000000000000000000000000000000000000000000000000082169050919050565b611dd181611d9c565b8114611ddc57600080fd5b50565b600081359050611dee81611dc8565b92915050565b600060208284031215611e0a57611e09611d92565b5b6000611e1884828501611ddf565b91505092915050565b60008115159050919050565b611e3681611e21565b82525050565b6000602082019050611e516000830184611e2d565b92915050565b600081519050919050565b600082825260208201905092915050565b60005b83811015611e91578082015181840152602081019050611e76565b60008484015250505050565b6000601f19601f8301169050919050565b6000611eb982611e57565b611ec38185611e62565b9350611ed3818560208601611e73565b611edc81611e9d565b840191505092915050565b60006020820190508181036000830152611f018184611eae565b905092915050565b6000819050919050565b611f1c81611f09565b8114611f2757600080fd5b50565b600081359050611f3981611f13565b92915050565b600060208284031215611f5557611f54611d92565b5b6000611f6384828501611f2a565b91505092915050565b600073ffffffffffffffffffffffffffffffffffffffff82169050919050565b6000611f9782611f6c565b9050919050565b611fa781611f8c565b82525050565b6000602082019050611fc26000830184611f9e565b92915050565b611fd181611f8c565b8114611fdc57600080fd5b50565b600081359050611fee81611fc8565b92915050565b6000806040838503121561200b5761200a611d92565b5b600061201985828601611fdf565b925050602061202a85828601611f2a565b9150509250929050565b60008060006060848603121561204d5761204c611d92565b5b600061205b86828701611fdf565b935050602061206c86828701611fdf565b925050604061207d86828701611f2a565b9150509250925092565b60006020828403121561209d5761209c611d92565b5b60006120ab84828501611fdf565b91505092915050565b6120bd81611f09565b82525050565b60006020820190506120d860008301846120b4565b92915050565b6120e781611e21565b81146120f257600080fd5b50565b600081359050612104816120de565b92915050565b6000806040838503121561212157612120611d92565b5b600061212f85828601611fdf565b9250506020612140858286016120f5565b9150509250929050565b600080fd5b600080fd5b7f4e487b7100000000000000000000000000000000000000000000000000000000600052604160045260246000fd5b61218c82611e9d565b810181811067ffffffffffffffff821117156121ab576121aa612154565b5b80604052505050565b60006121be611d88565b90506121ca8282612183565b919050565b600067ffffffffffffffff8211156121ea576121e9612154565b5b6121f382611e9d565b9050602081019050919050565b82818337600083830152505050565b600061222261221d846121cf565b6121b4565b90508281526020810184848401111561223e5761223d61214f565b5b612249848285612200565b509392505050565b600082601f8301126122665761226561214a565b5b813561227684826020860161220f565b91505092915050565b6000806040838503121561229657612295611d92565b5b60006122a485828601611fdf565b925050602083013567ffffffffffffffff8111156122c5576122c4611d97565b5b6122d185828601612251565b9150509250929050565b600067ffffffffffffffff8211156122f6576122f5612154565b5b6122ff82611e9d565b9050602081019050919050565b600061231f61231a846122db565b6121b4565b90508281526020810184848401111561233b5761233a61214f565b5b612346848285612200565b509392505050565b600082601f8301126123635761236261214a565b5b813561237384826020860161230c565b91505092915050565b6000806000806080858703121561239657612395611d92565b5b60006123a487828801611fdf565b94505060206123b587828801611fdf565b93505060406123c687828801611f2a565b925050606085013567ffffffffffffffff8111156123e7576123e6611d97565b5b6123f38782880161234e565b91505092959194509250565b6000806040838503121561241657612415611d92565b5b600061242485828601611fdf565b925050602061243585828601611fdf565b9150509250929050565b7f4e487b7100000000000000000000000000000000000000000000000000000000600052602260045260246000fd5b6000600282049050600182168061248657607f821691505b6020821081036124995761249861243f565b5b50919050565b7f4552433732313a20617070726f76616c20746f2063757272656e74206f776e6560008201527f7200000000000000000000000000000000000000000000000000000000000000602082015250565b60006124fb602183611e62565b91506125068261249f565b604082019050919050565b6000602082019050818103600083015261252a816124ee565b9050919050565b7f4552433732313a20617070726f76652063616c6c6572206973206e6f7420746f60008201527f6b656e206f776e6572206f7220617070726f76656420666f7220616c6c000000602082015250565b600061258d603d83611e62565b915061259882612531565b604082019050919050565b600060208201905081810360008301526125bc81612580565b9050919050565b7f4552433732313a2063616c6c6572206973206e6f7420746f6b656e206f776e6560008201527f72206f7220617070726f76656400000000000000000000000000000000000000602082015250565b600061261f602d83611e62565b915061262a826125c3565b604082019050919050565b6000602082019050818103600083015261264e81612612565b9050919050565b7f4552433732313a20696e76616c696420746f6b656e2049440000000000000000600082015250565b600061268b601883611e62565b915061269682612655565b602082019050919050565b600060208201905081810360008301526126ba8161267e565b9050919050565b7f4552433732313a2061646472657373207a65726f206973206e6f74206120766160008201527f6c6964206f776e65720000000000000000000000000000000000000000000000602082015250565b600061271d602983611e62565b9150612728826126c1565b604082019050919050565b6000602082019050818103600083015261274c81612710565b9050919050565b7f4f776e61626c653a206e6577206f776e657220697320746865207a65726f206160008201527f6464726573730000000000000000000000000000000000000000000000000000602082015250565b60006127af602683611e62565b91506127ba82612753565b604082019050919050565b600060208201905081810360008301526127de816127a2565b9050919050565b7f4552433732313a207472616e736665722066726f6d20696e636f72726563742060008201527f6f776e6572000000000000000000000000000000000000000000000000000000602082015250565b6000612841602583611e62565b915061284c826127e5565b604082019050919050565b6000602082019050818103600083015261287081612834565b9050919050565b7f4552433732313a207472616e7366657220746f20746865207a65726f2061646460008201527f7265737300000000000000000000000000000000000000000000000000000000602082015250565b60006128d3602483611e62565b91506128de82612877565b604082019050919050565b60006020820190508181036000830152612902816128c6565b9050919050565b7f4f776e61626c653a2063616c6c6572206973206e6f7420746865206f776e6572600082015250565b600061293f602083611e62565b915061294a82612909565b602082019050919050565b6000602082019050818103600083015261296e81612932565b9050919050565b7f4552433732313a20617070726f766520746f2063616c6c657200000000000000600082015250565b60006129ab601983611e62565b91506129b682612975565b602082019050919050565b600060208201905081810360008301526129da8161299e565b9050919050565b7f4552433732313a206d696e7420746f20746865207a65726f2061646472657373600082015250565b6000612a17602083611e62565b9150612a22826129e1565b602082019050919050565b60006020820190508181036000830152612a4681612a0a565b9050919050565b7f4552433732313a20746f6b656e20616c7265616479206d696e74656400000000600082015250565b6000612a83601c83611e62565b9150612a8e82612a4d565b602082019050919050565b60006020820190508181036000830152612ab281612a76565b9050919050565b7f45524337323155524953746f726167653a2055524920736574206f66206e6f6e60008201527f6578697374656e7420746f6b656e000000000000000000000000000000000000602082015250565b6000612b15602e83611e62565b9150612b2082612ab9565b604082019050919050565b60006020820190508181036000830152612b4481612b08565b9050919050565b60008190508160005260206000209050919050565b60006020601f8301049050919050565b600082821b905092915050565b600060088302612bad7fffffffffffffffffffffffffffffffffffffffffffffffffffffffffffffffff82612b70565b612bb78683612b70565b95508019841693508086168417925050509392505050565b6000819050919050565b6000612bf4612bef612bea84611f09565b612bcf565b611f09565b9050919050565b6000819050919050565b612c0e83612bd9565b612c22612c1a82612bfb565b848454612b7d565b825550505050565b600090565b612c37612c2a565b612c42818484612c05565b505050565b5b81811015612c6657612c5b600082612c2f565b600181019050612c48565b5050565b601f821115612cab57612c7c81612b4b565b612c8584612b60565b81016020851015612c94578190505b612ca8612ca085612b60565b830182612c47565b50505b505050565b600082821c905092915050565b6000612cce60001984600802612cb0565b1980831691505092915050565b6000612ce78383612cbd565b9150826002028217905092915050565b612d0082611e57565b67ffffffffffffffff811115612d1957612d18612154565b5b612d23825461246e565b612d2e828285612c6a565b600060209050601f831160018114612d615760008415612d4f578287015190505b612d598582612cdb565b865550612dc1565b601f198416612d6f86612b4b565b60005b82811015612d9757848901518255600182019150602085019450602081019050612d72565b86831015612db45784890151612db0601f891682612cbd565b8355505b6001600288020188555050505b505050505050565b7f4552433732313a207472616e7366657220746f206e6f6e20455243373231526560008201527f63656976657220696d706c656d656e7465720000000000000000000000000000602082015250565b6000612e25603283611e62565b9150612e3082612dc9565b604082019050919050565b60006020820190508181036000830152612e5481612e18565b9050919050565b600081905092915050565b6000612e7182611e57565b612e7b8185612e5b565b9350612e8b818560208601611e73565b80840191505092915050565b6000612ea38285612e66565b9150612eaf8284612e66565b91508190509392505050565b600081519050919050565b600082825260208201905092915050565b6000612ee282612ebb565b612eec8185612ec6565b9350612efc818560208601611e73565b612f0581611e9d565b840191505092915050565b6000608082019050612f256000830187611f9e565b612f326020830186611f9e565b612f3f60408301856120b4565b8181036060830152612f518184612ed7565b905095945050505050565b600081519050612f6b81611dc8565b92915050565b600060208284031215612f8757612f86611d92565b5b6000612f9584828501612f5c565b91505092915050565b7f4e487b7100000000000000000000000000000000000000000000000000000000600052601260045260246000fdfea26469706673582212202655ccfbccbeba44938df3246697dbf0b5b280abb7673bc6d9df1918dd1cf18564736f6c63430008130033",
  "immutableReferences": {},
  "source": "// SPDX-License-Identifier: MIT\r\npragma solidity >=0.4.22 <0.9.0;\r\n\r\nimport \"@openzeppelin/contracts/token/ERC721/extensions/ERC721URIStorage.sol\";\r\nimport \"@openzeppelin/contracts/access/Ownable.sol\";\r\nimport \"@openzeppelin/contracts/utils/Counters.sol\";\r\n\r\ncontract BirdNFT is ERC721URIStorage, Ownable {\r\n    using Counters for Counters.Counter;\r\n    Counters.Counter private _tokenIds;\r\n\r\n    constructor() ERC721(\"BirdNFT\", \"BNFT\") {}\r\n\r\n    // \r\n    function createNFT(address recipient, string memory imgURI) public onlyOwner returns (uint256) {\r\n        _tokenIds.increment();\r\n        uint256 newItemId = _tokenIds.current();\r\n        _mint(recipient, newItemId);\r\n        _setTokenURI(newItemId, imgURI);\r\n        return newItemId;\r\n    }\r\n\r\n    // URI \r\n    function tokenURI(uint256 tokenId) public view virtual override(ERC721URIStorage) returns (string memory) {\r\n        return super.tokenURI(tokenId);\r\n    }\r\n\r\n    // \r\n    function deleteNFT(uint256 tokenId) public onlyOwner {\r\n        _burn(tokenId);\r\n    }\r\n}\r\n",
  "sourcePath": "C:\\Users\\SSAFY\\Dropbox\\S08P31B104\\smart-contract\\contracts\\BirdNFT.sol",
  "compiler": {
    "name": "solc",
    "version": "0.8.19+commit.7dd6d404.Emscripten.clang"
  },
  "schemaVersion": "3.4.13",
  "updatedAt": "2023-05-08T01:58:31.577Z",
  "networkType": "ethereum",
  "devdoc": {
    "events": {
      "Approval(address,address,uint256)": {
        "details": "Emitted when `owner` enables `approved` to manage the `tokenId` token."
      },
      "ApprovalForAll(address,address,bool)": {
        "details": "Emitted when `owner` enables or disables (`approved`) `operator` to manage all of its assets."
      },
      "Transfer(address,address,uint256)": {
        "details": "Emitted when `tokenId` token is transferred from `from` to `to`."
      }
    },
    "kind": "dev",
    "methods": {
      "approve(address,uint256)": {
        "details": "See {IERC721-approve}."
      },
      "balanceOf(address)": {
        "details": "See {IERC721-balanceOf}."
      },
      "getApproved(uint256)": {
        "details": "See {IERC721-getApproved}."
      },
      "isApprovedForAll(address,address)": {
        "details": "See {IERC721-isApprovedForAll}."
      },
      "name()": {
        "details": "See {IERC721Metadata-name}."
      },
      "owner()": {
        "details": "Returns the address of the current owner."
      },
      "ownerOf(uint256)": {
        "details": "See {IERC721-ownerOf}."
      },
      "renounceOwnership()": {
        "details": "Leaves the contract without owner. It will not be possible to call `onlyOwner` functions anymore. Can only be called by the current owner. NOTE: Renouncing ownership will leave the contract without an owner, thereby removing any functionality that is only available to the owner."
      },
      "safeTransferFrom(address,address,uint256)": {
        "details": "See {IERC721-safeTransferFrom}."
      },
      "safeTransferFrom(address,address,uint256,bytes)": {
        "details": "See {IERC721-safeTransferFrom}."
      },
      "setApprovalForAll(address,bool)": {
        "details": "See {IERC721-setApprovalForAll}."
      },
      "supportsInterface(bytes4)": {
        "details": "See {IERC165-supportsInterface}."
      },
      "symbol()": {
        "details": "See {IERC721Metadata-symbol}."
      },
      "tokenURI(uint256)": {
        "details": "See {IERC721Metadata-tokenURI}."
      },
      "transferFrom(address,address,uint256)": {
        "details": "See {IERC721-transferFrom}."
      },
      "transferOwnership(address)": {
        "details": "Transfers ownership of the contract to a new account (`newOwner`). Can only be called by the current owner."
      }
    },
    "version": 1
  },
  "userdoc": {
    "kind": "user",
    "methods": {},
    "version": 1
  }
}