{
  "contractName": "Donation",
  "abi": [
    {
      "inputs": [
        {
          "internalType": "string",
          "name": "name",
          "type": "string"
        },
        {
          "internalType": "string",
          "name": "symbol",
          "type": "string"
        }
      ],
      "stateMutability": "nonpayable",
      "type": "constructor"
    },
    {
      "anonymous": false,
      "inputs": [
        {
          "indexed": true,
          "internalType": "address",
          "name": "owner",
          "type": "address"
        },
        {
          "indexed": true,
          "internalType": "address",
          "name": "spender",
          "type": "address"
        },
        {
          "indexed": false,
          "internalType": "uint256",
          "name": "value",
          "type": "uint256"
        }
      ],
      "name": "Approval",
      "type": "event"
    },
    {
      "anonymous": false,
      "inputs": [
        {
          "indexed": false,
          "internalType": "address",
          "name": "sender",
          "type": "address"
        },
        {
          "indexed": false,
          "internalType": "uint256",
          "name": "amount",
          "type": "uint256"
        },
        {
          "indexed": false,
          "internalType": "uint256",
          "name": "totalContribution",
          "type": "uint256"
        }
      ],
      "name": "DonationReceived",
      "type": "event"
    },
    {
      "anonymous": false,
      "inputs": [
        {
          "indexed": false,
          "internalType": "address",
          "name": "_msgSender",
          "type": "address"
        },
        {
          "indexed": false,
          "internalType": "uint256",
          "name": "_value",
          "type": "uint256"
        }
      ],
      "name": "MyCurrentValue",
      "type": "event"
    },
    {
      "anonymous": false,
      "inputs": [
        {
          "indexed": true,
          "internalType": "address",
          "name": "previousOwner",
          "type": "address"
        },
        {
          "indexed": true,
          "internalType": "address",
          "name": "newOwner",
          "type": "address"
        }
      ],
      "name": "OwnershipTransferred",
      "type": "event"
    },
    {
      "anonymous": false,
      "inputs": [
        {
          "indexed": true,
          "internalType": "address",
          "name": "from",
          "type": "address"
        },
        {
          "indexed": true,
          "internalType": "address",
          "name": "to",
          "type": "address"
        },
        {
          "indexed": false,
          "internalType": "uint256",
          "name": "value",
          "type": "uint256"
        }
      ],
      "name": "Transfer",
      "type": "event"
    },
    {
      "inputs": [
        {
          "internalType": "address",
          "name": "owner",
          "type": "address"
        },
        {
          "internalType": "address",
          "name": "spender",
          "type": "address"
        }
      ],
      "name": "allowance",
      "outputs": [
        {
          "internalType": "uint256",
          "name": "",
          "type": "uint256"
        }
      ],
      "stateMutability": "view",
      "type": "function",
      "constant": true
    },
    {
      "inputs": [
        {
          "internalType": "address",
          "name": "spender",
          "type": "address"
        },
        {
          "internalType": "uint256",
          "name": "amount",
          "type": "uint256"
        }
      ],
      "name": "approve",
      "outputs": [
        {
          "internalType": "bool",
          "name": "",
          "type": "bool"
        }
      ],
      "stateMutability": "nonpayable",
      "type": "function"
    },
    {
      "inputs": [
        {
          "internalType": "address",
          "name": "account",
          "type": "address"
        }
      ],
      "name": "balanceOf",
      "outputs": [
        {
          "internalType": "uint256",
          "name": "",
          "type": "uint256"
        }
      ],
      "stateMutability": "view",
      "type": "function",
      "constant": true
    },
    {
      "inputs": [],
      "name": "decimals",
      "outputs": [
        {
          "internalType": "uint8",
          "name": "",
          "type": "uint8"
        }
      ],
      "stateMutability": "view",
      "type": "function",
      "constant": true
    },
    {
      "inputs": [
        {
          "internalType": "address",
          "name": "spender",
          "type": "address"
        },
        {
          "internalType": "uint256",
          "name": "subtractedValue",
          "type": "uint256"
        }
      ],
      "name": "decreaseAllowance",
      "outputs": [
        {
          "internalType": "bool",
          "name": "",
          "type": "bool"
        }
      ],
      "stateMutability": "nonpayable",
      "type": "function"
    },
    {
      "inputs": [],
      "name": "donationReceiver",
      "outputs": [
        {
          "internalType": "address payable",
          "name": "",
          "type": "address"
        }
      ],
      "stateMutability": "view",
      "type": "function",
      "constant": true
    },
    {
      "inputs": [
        {
          "internalType": "address",
          "name": "spender",
          "type": "address"
        },
        {
          "internalType": "uint256",
          "name": "addedValue",
          "type": "uint256"
        }
      ],
      "name": "increaseAllowance",
      "outputs": [
        {
          "internalType": "bool",
          "name": "",
          "type": "bool"
        }
      ],
      "stateMutability": "nonpayable",
      "type": "function"
    },
    {
      "inputs": [],
      "name": "name",
      "outputs": [
        {
          "internalType": "string",
          "name": "",
          "type": "string"
        }
      ],
      "stateMutability": "view",
      "type": "function",
      "constant": true
    },
    {
      "inputs": [],
      "name": "owner",
      "outputs": [
        {
          "internalType": "address",
          "name": "",
          "type": "address"
        }
      ],
      "stateMutability": "view",
      "type": "function",
      "constant": true
    },
    {
      "inputs": [],
      "name": "renounceOwnership",
      "outputs": [],
      "stateMutability": "nonpayable",
      "type": "function"
    },
    {
      "inputs": [],
      "name": "symbol",
      "outputs": [
        {
          "internalType": "string",
          "name": "",
          "type": "string"
        }
      ],
      "stateMutability": "view",
      "type": "function",
      "constant": true
    },
    {
      "inputs": [],
      "name": "totalSupply",
      "outputs": [
        {
          "internalType": "uint256",
          "name": "",
          "type": "uint256"
        }
      ],
      "stateMutability": "view",
      "type": "function",
      "constant": true
    },
    {
      "inputs": [
        {
          "internalType": "address",
          "name": "to",
          "type": "address"
        },
        {
          "internalType": "uint256",
          "name": "amount",
          "type": "uint256"
        }
      ],
      "name": "transfer",
      "outputs": [
        {
          "internalType": "bool",
          "name": "",
          "type": "bool"
        }
      ],
      "stateMutability": "nonpayable",
      "type": "function"
    },
    {
      "inputs": [
        {
          "internalType": "address",
          "name": "from",
          "type": "address"
        },
        {
          "internalType": "address",
          "name": "to",
          "type": "address"
        },
        {
          "internalType": "uint256",
          "name": "amount",
          "type": "uint256"
        }
      ],
      "name": "transferFrom",
      "outputs": [
        {
          "internalType": "bool",
          "name": "",
          "type": "bool"
        }
      ],
      "stateMutability": "nonpayable",
      "type": "function"
    },
    {
      "inputs": [
        {
          "internalType": "address",
          "name": "newOwner",
          "type": "address"
        }
      ],
      "name": "transferOwnership",
      "outputs": [],
      "stateMutability": "nonpayable",
      "type": "function"
    },
    {
      "inputs": [],
      "name": "confirm",
      "outputs": [
        {
          "internalType": "address",
          "name": "add",
          "type": "address"
        }
      ],
      "stateMutability": "view",
      "type": "function",
      "constant": true
    },
    {
      "inputs": [],
      "name": "donate",
      "outputs": [],
      "stateMutability": "payable",
      "type": "function",
      "payable": true
    },
    {
      "inputs": [],
      "name": "checkValueNow",
      "outputs": [],
      "stateMutability": "nonpayable",
      "type": "function"
    }
  ],
  "bytecode": "0x60806040523480156200001157600080fd5b50604051620021b9380380620021b983398181016040528101906200003791906200033d565b818181600390816200004a91906200060d565b5080600490816200005c91906200060d565b5050506200007f62000073620000dc60201b60201c565b620000e460201b60201c565b73ada2c5024608a5dd321b960c22cc297c31df4422600660006101000a81548173ffffffffffffffffffffffffffffffffffffffff021916908373ffffffffffffffffffffffffffffffffffffffff1602179055505050620006f4565b600033905090565b6000600560009054906101000a900473ffffffffffffffffffffffffffffffffffffffff16905081600560006101000a81548173ffffffffffffffffffffffffffffffffffffffff021916908373ffffffffffffffffffffffffffffffffffffffff1602179055508173ffffffffffffffffffffffffffffffffffffffff168173ffffffffffffffffffffffffffffffffffffffff167f8be0079c531659141344cd1fd0a4f28419497f9722a3daafe3b4186f6b6457e060405160405180910390a35050565b6000604051905090565b600080fd5b600080fd5b600080fd5b600080fd5b6000601f19601f8301169050919050565b7f4e487b7100000000000000000000000000000000000000000000000000000000600052604160045260246000fd5b6200021382620001c8565b810181811067ffffffffffffffff82111715620002355762000234620001d9565b5b80604052505050565b60006200024a620001aa565b905062000258828262000208565b919050565b600067ffffffffffffffff8211156200027b576200027a620001d9565b5b6200028682620001c8565b9050602081019050919050565b60005b83811015620002b357808201518184015260208101905062000296565b60008484015250505050565b6000620002d6620002d0846200025d565b6200023e565b905082815260208101848484011115620002f557620002f4620001c3565b5b6200030284828562000293565b509392505050565b600082601f830112620003225762000321620001be565b5b815162000334848260208601620002bf565b91505092915050565b60008060408385031215620003575762000356620001b4565b5b600083015167ffffffffffffffff811115620003785762000377620001b9565b5b62000386858286016200030a565b925050602083015167ffffffffffffffff811115620003aa57620003a9620001b9565b5b620003b8858286016200030a565b9150509250929050565b600081519050919050565b7f4e487b7100000000000000000000000000000000000000000000000000000000600052602260045260246000fd5b600060028204905060018216806200041557607f821691505b6020821081036200042b576200042a620003cd565b5b50919050565b60008190508160005260206000209050919050565b60006020601f8301049050919050565b600082821b905092915050565b600060088302620004957fffffffffffffffffffffffffffffffffffffffffffffffffffffffffffffffff8262000456565b620004a1868362000456565b95508019841693508086168417925050509392505050565b6000819050919050565b6000819050919050565b6000620004ee620004e8620004e284620004b9565b620004c3565b620004b9565b9050919050565b6000819050919050565b6200050a83620004cd565b620005226200051982620004f5565b84845462000463565b825550505050565b600090565b620005396200052a565b62000546818484620004ff565b505050565b5b818110156200056e57620005626000826200052f565b6001810190506200054c565b5050565b601f821115620005bd57620005878162000431565b620005928462000446565b81016020851015620005a2578190505b620005ba620005b18562000446565b8301826200054b565b50505b505050565b600082821c905092915050565b6000620005e260001984600802620005c2565b1980831691505092915050565b6000620005fd8383620005cf565b9150826002028217905092915050565b6200061882620003c2565b67ffffffffffffffff811115620006345762000633620001d9565b5b620006408254620003fc565b6200064d82828562000572565b600060209050601f83116001811462000685576000841562000670578287015190505b6200067c8582620005ef565b865550620006ec565b601f198416620006958662000431565b60005b82811015620006bf5784890151825560018201915060208501945060208101905062000698565b86831015620006df5784890151620006db601f891682620005cf565b8355505b6001600288020188555050505b505050505050565b611ab580620007046000396000f3fe6080604052600436106101095760003560e01c8063715018a611610095578063a9059cbb11610064578063a9059cbb14610383578063c776b4df146103c0578063dd62ed3e146103d7578063ed88c68e14610414578063f2fde38b1461041e57610109565b8063715018a6146102d95780638da5cb5b146102f057806395d89b411461031b578063a457c2d71461034657610109565b806323b872dd116100dc57806323b872dd146101cc578063313ce5671461020957806339509351146102345780637022b58e1461027157806370a082311461029c57610109565b806306fdde031461010e578063095ea7b31461013957806318160ddd14610176578063213ea6bb146101a1575b600080fd5b34801561011a57600080fd5b50610123610447565b60405161013091906110aa565b60405180910390f35b34801561014557600080fd5b50610160600480360381019061015b9190611165565b6104d9565b60405161016d91906111c0565b60405180910390f35b34801561018257600080fd5b5061018b6104fc565b60405161019891906111ea565b60405180910390f35b3480156101ad57600080fd5b506101b6610506565b6040516101c39190611226565b60405180910390f35b3480156101d857600080fd5b506101f360048036038101906101ee9190611241565b61052c565b60405161020091906111c0565b60405180910390f35b34801561021557600080fd5b5061021e61055b565b60405161022b91906112b0565b60405180910390f35b34801561024057600080fd5b5061025b60048036038101906102569190611165565b610564565b60405161026891906111c0565b60405180910390f35b34801561027d57600080fd5b5061028661059b565b60405161029391906112da565b60405180910390f35b3480156102a857600080fd5b506102c360048036038101906102be91906112f5565b6105a3565b6040516102d091906111ea565b60405180910390f35b3480156102e557600080fd5b506102ee6105eb565b005b3480156102fc57600080fd5b506103056105ff565b60405161031291906112da565b60405180910390f35b34801561032757600080fd5b50610330610629565b60405161033d91906110aa565b60405180910390f35b34801561035257600080fd5b5061036d60048036038101906103689190611165565b6106bb565b60405161037a91906111c0565b60405180910390f35b34801561038f57600080fd5b506103aa60048036038101906103a59190611165565b610732565b6040516103b791906111c0565b60405180910390f35b3480156103cc57600080fd5b506103d5610755565b005b3480156103e357600080fd5b506103fe60048036038101906103f99190611322565b6107a7565b60405161040b91906111ea565b60405180910390f35b61041c61082e565b005b34801561042a57600080fd5b50610445600480360381019061044091906112f5565b610976565b005b60606003805461045690611391565b80601f016020809104026020016040519081016040528092919081815260200182805461048290611391565b80156104cf5780601f106104a4576101008083540402835291602001916104cf565b820191906000526020600020905b8154815290600101906020018083116104b257829003601f168201915b5050505050905090565b6000806104e46109f9565b90506104f1818585610a01565b600191505092915050565b6000600254905090565b600660009054906101000a900473ffffffffffffffffffffffffffffffffffffffff1681565b6000806105376109f9565b9050610544858285610bca565b61054f858585610c56565b60019150509392505050565b60006012905090565b60008061056f6109f9565b905061059081858561058185896107a7565b61058b91906113f1565b610a01565b600191505092915050565b600033905090565b60008060008373ffffffffffffffffffffffffffffffffffffffff1673ffffffffffffffffffffffffffffffffffffffff168152602001908152602001600020549050919050565b6105f3610ecc565b6105fd6000610f4a565b565b6000600560009054906101000a900473ffffffffffffffffffffffffffffffffffffffff16905090565b60606004805461063890611391565b80601f016020809104026020016040519081016040528092919081815260200182805461066490611391565b80156106b15780601f10610686576101008083540402835291602001916106b1565b820191906000526020600020905b81548152906001019060200180831161069457829003601f168201915b5050505050905090565b6000806106c66109f9565b905060006106d482866107a7565b905083811015610719576040517f08c379a000000000000000000000000000000000000000000000000000000000815260040161071090611497565b60405180910390fd5b6107268286868403610a01565b60019250505092915050565b60008061073d6109f9565b905061074a818585610c56565b600191505092915050565b7f96f3ab567151de7a605db2b427c0e7bd4c402b81f2d24c89b0b92687e0494c15333373ffffffffffffffffffffffffffffffffffffffff163160405161079d9291906114b7565b60405180910390a1565b6000600160008473ffffffffffffffffffffffffffffffffffffffff1673ffffffffffffffffffffffffffffffffffffffff16815260200190815260200160002060008373ffffffffffffffffffffffffffffffffffffffff1673ffffffffffffffffffffffffffffffffffffffff16815260200190815260200160002054905092915050565b610836610ecc565b60003411610879576040517f08c379a000000000000000000000000000000000000000000000000000000000815260040161087090611552565b60405180910390fd5b343373ffffffffffffffffffffffffffffffffffffffff163110156108d3576040517f08c379a00000000000000000000000000000000000000000000000000000000081526004016108ca906115e4565b60405180910390fd5b61090033600660009054906101000a900473ffffffffffffffffffffffffffffffffffffffff1634610c56565b7f4b0304ab2f313234b1cea012339c8f8c3bf2c8bb357d81a579cfdb35d2e3d0303334600660009054906101000a900473ffffffffffffffffffffffffffffffffffffffff1673ffffffffffffffffffffffffffffffffffffffff163160405161096c93929190611604565b60405180910390a1565b61097e610ecc565b600073ffffffffffffffffffffffffffffffffffffffff168173ffffffffffffffffffffffffffffffffffffffff16036109ed576040517f08c379a00000000000000000000000000000000000000000000000000000000081526004016109e4906116ad565b60405180910390fd5b6109f681610f4a565b50565b600033905090565b600073ffffffffffffffffffffffffffffffffffffffff168373ffffffffffffffffffffffffffffffffffffffff1603610a70576040517f08c379a0000000000000000000000000000000000000000000000000000000008152600401610a679061173f565b60405180910390fd5b600073ffffffffffffffffffffffffffffffffffffffff168273ffffffffffffffffffffffffffffffffffffffff1603610adf576040517f08c379a0000000000000000000000000000000000000000000000000000000008152600401610ad6906117d1565b60405180910390fd5b80600160008573ffffffffffffffffffffffffffffffffffffffff1673ffffffffffffffffffffffffffffffffffffffff16815260200190815260200160002060008473ffffffffffffffffffffffffffffffffffffffff1673ffffffffffffffffffffffffffffffffffffffff168152602001908152602001600020819055508173ffffffffffffffffffffffffffffffffffffffff168373ffffffffffffffffffffffffffffffffffffffff167f8c5be1e5ebec7d5bd14f71427d1e84f3dd0314c0f7b2291e5b200ac8c7c3b92583604051610bbd91906111ea565b60405180910390a3505050565b6000610bd684846107a7565b90507fffffffffffffffffffffffffffffffffffffffffffffffffffffffffffffffff8114610c505781811015610c42576040517f08c379a0000000000000000000000000000000000000000000000000000000008152600401610c399061183d565b60405180910390fd5b610c4f8484848403610a01565b5b50505050565b600073ffffffffffffffffffffffffffffffffffffffff168373ffffffffffffffffffffffffffffffffffffffff1603610cc5576040517f08c379a0000000000000000000000000000000000000000000000000000000008152600401610cbc906118cf565b60405180910390fd5b600073ffffffffffffffffffffffffffffffffffffffff168273ffffffffffffffffffffffffffffffffffffffff1603610d34576040517f08c379a0000000000000000000000000000000000000000000000000000000008152600401610d2b90611961565b60405180910390fd5b610d3f838383611010565b60008060008573ffffffffffffffffffffffffffffffffffffffff1673ffffffffffffffffffffffffffffffffffffffff16815260200190815260200160002054905081811015610dc5576040517f08c379a0000000000000000000000000000000000000000000000000000000008152600401610dbc906119f3565b60405180910390fd5b8181036000808673ffffffffffffffffffffffffffffffffffffffff1673ffffffffffffffffffffffffffffffffffffffff16815260200190815260200160002081905550816000808573ffffffffffffffffffffffffffffffffffffffff1673ffffffffffffffffffffffffffffffffffffffff168152602001908152602001600020600082825401925050819055508273ffffffffffffffffffffffffffffffffffffffff168473ffffffffffffffffffffffffffffffffffffffff167fddf252ad1be2c89b69c2b068fc378daa952ba7f163c4a11628f55a4df523b3ef84604051610eb391906111ea565b60405180910390a3610ec6848484611015565b50505050565b610ed46109f9565b73ffffffffffffffffffffffffffffffffffffffff16610ef26105ff565b73ffffffffffffffffffffffffffffffffffffffff1614610f48576040517f08c379a0000000000000000000000000000000000000000000000000000000008152600401610f3f90611a5f565b60405180910390fd5b565b6000600560009054906101000a900473ffffffffffffffffffffffffffffffffffffffff16905081600560006101000a81548173ffffffffffffffffffffffffffffffffffffffff021916908373ffffffffffffffffffffffffffffffffffffffff1602179055508173ffffffffffffffffffffffffffffffffffffffff168173ffffffffffffffffffffffffffffffffffffffff167f8be0079c531659141344cd1fd0a4f28419497f9722a3daafe3b4186f6b6457e060405160405180910390a35050565b505050565b505050565b600081519050919050565b600082825260208201905092915050565b60005b83811015611054578082015181840152602081019050611039565b60008484015250505050565b6000601f19601f8301169050919050565b600061107c8261101a565b6110868185611025565b9350611096818560208601611036565b61109f81611060565b840191505092915050565b600060208201905081810360008301526110c48184611071565b905092915050565b600080fd5b600073ffffffffffffffffffffffffffffffffffffffff82169050919050565b60006110fc826110d1565b9050919050565b61110c816110f1565b811461111757600080fd5b50565b60008135905061112981611103565b92915050565b6000819050919050565b6111428161112f565b811461114d57600080fd5b50565b60008135905061115f81611139565b92915050565b6000806040838503121561117c5761117b6110cc565b5b600061118a8582860161111a565b925050602061119b85828601611150565b9150509250929050565b60008115159050919050565b6111ba816111a5565b82525050565b60006020820190506111d560008301846111b1565b92915050565b6111e48161112f565b82525050565b60006020820190506111ff60008301846111db565b92915050565b6000611210826110d1565b9050919050565b61122081611205565b82525050565b600060208201905061123b6000830184611217565b92915050565b60008060006060848603121561125a576112596110cc565b5b60006112688682870161111a565b93505060206112798682870161111a565b925050604061128a86828701611150565b9150509250925092565b600060ff82169050919050565b6112aa81611294565b82525050565b60006020820190506112c560008301846112a1565b92915050565b6112d4816110f1565b82525050565b60006020820190506112ef60008301846112cb565b92915050565b60006020828403121561130b5761130a6110cc565b5b60006113198482850161111a565b91505092915050565b60008060408385031215611339576113386110cc565b5b60006113478582860161111a565b92505060206113588582860161111a565b9150509250929050565b7f4e487b7100000000000000000000000000000000000000000000000000000000600052602260045260246000fd5b600060028204905060018216806113a957607f821691505b6020821081036113bc576113bb611362565b5b50919050565b7f4e487b7100000000000000000000000000000000000000000000000000000000600052601160045260246000fd5b60006113fc8261112f565b91506114078361112f565b925082820190508082111561141f5761141e6113c2565b5b92915050565b7f45524332303a2064656372656173656420616c6c6f77616e63652062656c6f7760008201527f207a65726f000000000000000000000000000000000000000000000000000000602082015250565b6000611481602583611025565b915061148c82611425565b604082019050919050565b600060208201905081810360008301526114b081611474565b9050919050565b60006040820190506114cc60008301856112cb565b6114d960208301846111db565b9392505050565b7f446f6e6174696f6e546f6b656e3a20616d6f756e74206d75737420626520677260008201527f6561746572207468616e20300000000000000000000000000000000000000000602082015250565b600061153c602c83611025565b9150611547826114e0565b604082019050919050565b6000602082019050818103600083015261156b8161152f565b9050919050565b7f446f6e6174696f6e546f6b656e3a20696e73756666696369656e742062616c6160008201527f6e63650000000000000000000000000000000000000000000000000000000000602082015250565b60006115ce602383611025565b91506115d982611572565b604082019050919050565b600060208201905081810360008301526115fd816115c1565b9050919050565b600060608201905061161960008301866112cb565b61162660208301856111db565b61163360408301846111db565b949350505050565b7f4f776e61626c653a206e6577206f776e657220697320746865207a65726f206160008201527f6464726573730000000000000000000000000000000000000000000000000000602082015250565b6000611697602683611025565b91506116a28261163b565b604082019050919050565b600060208201905081810360008301526116c68161168a565b9050919050565b7f45524332303a20617070726f76652066726f6d20746865207a65726f2061646460008201527f7265737300000000000000000000000000000000000000000000000000000000602082015250565b6000611729602483611025565b9150611734826116cd565b604082019050919050565b600060208201905081810360008301526117588161171c565b9050919050565b7f45524332303a20617070726f766520746f20746865207a65726f20616464726560008201527f7373000000000000000000000000000000000000000000000000000000000000602082015250565b60006117bb602283611025565b91506117c68261175f565b604082019050919050565b600060208201905081810360008301526117ea816117ae565b9050919050565b7f45524332303a20696e73756666696369656e7420616c6c6f77616e6365000000600082015250565b6000611827601d83611025565b9150611832826117f1565b602082019050919050565b600060208201905081810360008301526118568161181a565b9050919050565b7f45524332303a207472616e736665722066726f6d20746865207a65726f20616460008201527f6472657373000000000000000000000000000000000000000000000000000000602082015250565b60006118b9602583611025565b91506118c48261185d565b604082019050919050565b600060208201905081810360008301526118e8816118ac565b9050919050565b7f45524332303a207472616e7366657220746f20746865207a65726f206164647260008201527f6573730000000000000000000000000000000000000000000000000000000000602082015250565b600061194b602383611025565b9150611956826118ef565b604082019050919050565b6000602082019050818103600083015261197a8161193e565b9050919050565b7f45524332303a207472616e7366657220616d6f756e742065786365656473206260008201527f616c616e63650000000000000000000000000000000000000000000000000000602082015250565b60006119dd602683611025565b91506119e882611981565b604082019050919050565b60006020820190508181036000830152611a0c816119d0565b9050919050565b7f4f776e61626c653a2063616c6c6572206973206e6f7420746865206f776e6572600082015250565b6000611a49602083611025565b9150611a5482611a13565b602082019050919050565b60006020820190508181036000830152611a7881611a3c565b905091905056fea2646970667358221220f293b30ef00b7fe7c1520f60182c1437d4ef315d7c696f152e88cab775a1afae64736f6c63430008130033",
  "immutableReferences": {},
  "source": "// SPDX-License-Identifier: MIT\r\npragma solidity >=0.4.22 <0.9.0;\r\n\r\nimport \"@openzeppelin/contracts/token/ERC20/ERC20.sol\";\r\nimport \"@openzeppelin/contracts/access/Ownable.sol\";\r\n\r\ncontract Donation is ERC20, Ownable {\r\n    address payable public donationReceiver;\r\n\r\n    event DonationReceived(address sender, uint amount, uint totalContribution);\r\n    event MyCurrentValue(address _msgSender,uint256 _value);\r\n\r\n  constructor(string memory name, string memory symbol) ERC20(name, symbol) {\r\n    donationReceiver = payable(0xadA2C5024608A5dD321b960c22CC297c31dF4422);\r\n  }\r\n\r\n   // msg.sender  \r\n   function confirm() public view returns (address add) {\r\n      return msg.sender;\r\n   }\r\n\r\n    //\r\n    function donate() public payable onlyOwner{\r\n        require(msg.value > 0, \"DonationToken: amount must be greater than 0\");\r\n        require(msg.sender.balance >= msg.value, \"DonationToken: insufficient balance\");\r\n        // donationReceiver.transfer(msg.value);\r\n        _transfer(msg.sender, donationReceiver, msg.value);\r\n        emit DonationReceived(msg.sender, msg.value, donationReceiver.balance);\r\n    }\r\n\r\n    //\r\n    function checkValueNow() public {\r\n        emit MyCurrentValue(msg.sender, msg.sender.balance);\r\n    }\r\n\r\n}",
  "sourcePath": "C:\\Users\\SSAFY\\Dropbox\\S08P31B104\\smart-contract\\contracts\\Donation.sol",
  "compiler": {
    "name": "solc",
    "version": "0.8.19+commit.7dd6d404.Emscripten.clang"
  },
  "schemaVersion": "3.4.13",
  "updatedAt": "2023-05-07T06:17:50.212Z",
  "networkType": "ethereum",
  "devdoc": {
    "events": {
      "Approval(address,address,uint256)": {
        "details": "Emitted when the allowance of a `spender` for an `owner` is set by a call to {approve}. `value` is the new allowance."
      },
      "Transfer(address,address,uint256)": {
        "details": "Emitted when `value` tokens are moved from one account (`from`) to another (`to`). Note that `value` may be zero."
      }
    },
    "kind": "dev",
    "methods": {
      "allowance(address,address)": {
        "details": "See {IERC20-allowance}."
      },
      "approve(address,uint256)": {
        "details": "See {IERC20-approve}. NOTE: If `amount` is the maximum `uint256`, the allowance is not updated on `transferFrom`. This is semantically equivalent to an infinite approval. Requirements: - `spender` cannot be the zero address."
      },
      "balanceOf(address)": {
        "details": "See {IERC20-balanceOf}."
      },
      "decimals()": {
        "details": "Returns the number of decimals used to get its user representation. For example, if `decimals` equals `2`, a balance of `505` tokens should be displayed to a user as `5.05` (`505 / 10 ** 2`). Tokens usually opt for a value of 18, imitating the relationship between Ether and Wei. This is the value {ERC20} uses, unless this function is overridden; NOTE: This information is only used for _display_ purposes: it in no way affects any of the arithmetic of the contract, including {IERC20-balanceOf} and {IERC20-transfer}."
      },
      "decreaseAllowance(address,uint256)": {
        "details": "Atomically decreases the allowance granted to `spender` by the caller. This is an alternative to {approve} that can be used as a mitigation for problems described in {IERC20-approve}. Emits an {Approval} event indicating the updated allowance. Requirements: - `spender` cannot be the zero address. - `spender` must have allowance for the caller of at least `subtractedValue`."
      },
      "increaseAllowance(address,uint256)": {
        "details": "Atomically increases the allowance granted to `spender` by the caller. This is an alternative to {approve} that can be used as a mitigation for problems described in {IERC20-approve}. Emits an {Approval} event indicating the updated allowance. Requirements: - `spender` cannot be the zero address."
      },
      "name()": {
        "details": "Returns the name of the token."
      },
      "owner()": {
        "details": "Returns the address of the current owner."
      },
      "renounceOwnership()": {
        "details": "Leaves the contract without owner. It will not be possible to call `onlyOwner` functions anymore. Can only be called by the current owner. NOTE: Renouncing ownership will leave the contract without an owner, thereby removing any functionality that is only available to the owner."
      },
      "symbol()": {
        "details": "Returns the symbol of the token, usually a shorter version of the name."
      },
      "totalSupply()": {
        "details": "See {IERC20-totalSupply}."
      },
      "transfer(address,uint256)": {
        "details": "See {IERC20-transfer}. Requirements: - `to` cannot be the zero address. - the caller must have a balance of at least `amount`."
      },
      "transferFrom(address,address,uint256)": {
        "details": "See {IERC20-transferFrom}. Emits an {Approval} event indicating the updated allowance. This is not required by the EIP. See the note at the beginning of {ERC20}. NOTE: Does not update the allowance if the current allowance is the maximum `uint256`. Requirements: - `from` and `to` cannot be the zero address. - `from` must have a balance of at least `amount`. - the caller must have allowance for ``from``'s tokens of at least `amount`."
      },
      "transferOwnership(address)": {
        "details": "Transfers ownership of the contract to a new account (`newOwner`). Can only be called by the current owner."
      }
    },
    "version": 1
  },
  "userdoc": {
    "kind": "user",
    "methods": {},
    "version": 1
  }
}