{
  "contractName": "Donation",
  "abi": [
    {
      "inputs": [
        {
          "internalType": "string",
          "name": "name",
          "type": "string"
        },
        {
          "internalType": "string",
          "name": "symbol",
          "type": "string"
        }
      ],
      "stateMutability": "nonpayable",
      "type": "constructor"
    },
    {
      "anonymous": false,
      "inputs": [
        {
          "indexed": true,
          "internalType": "address",
          "name": "owner",
          "type": "address"
        },
        {
          "indexed": true,
          "internalType": "address",
          "name": "spender",
          "type": "address"
        },
        {
          "indexed": false,
          "internalType": "uint256",
          "name": "value",
          "type": "uint256"
        }
      ],
      "name": "Approval",
      "type": "event"
    },
    {
      "anonymous": false,
      "inputs": [
        {
          "indexed": false,
          "internalType": "address",
          "name": "sender",
          "type": "address"
        },
        {
          "indexed": false,
          "internalType": "uint256",
          "name": "amount",
          "type": "uint256"
        }
      ],
      "name": "DonationReceived",
      "type": "event"
    },
    {
      "anonymous": false,
      "inputs": [
        {
          "indexed": false,
          "internalType": "address",
          "name": "_msgSender",
          "type": "address"
        },
        {
          "indexed": false,
          "internalType": "uint256",
          "name": "_value",
          "type": "uint256"
        }
      ],
      "name": "MyCurrentValue",
      "type": "event"
    },
    {
      "anonymous": false,
      "inputs": [
        {
          "indexed": true,
          "internalType": "address",
          "name": "from",
          "type": "address"
        },
        {
          "indexed": true,
          "internalType": "address",
          "name": "to",
          "type": "address"
        },
        {
          "indexed": false,
          "internalType": "uint256",
          "name": "value",
          "type": "uint256"
        }
      ],
      "name": "Transfer",
      "type": "event"
    },
    {
      "inputs": [
        {
          "internalType": "address",
          "name": "owner",
          "type": "address"
        },
        {
          "internalType": "address",
          "name": "spender",
          "type": "address"
        }
      ],
      "name": "allowance",
      "outputs": [
        {
          "internalType": "uint256",
          "name": "",
          "type": "uint256"
        }
      ],
      "stateMutability": "view",
      "type": "function",
      "constant": true
    },
    {
      "inputs": [
        {
          "internalType": "address",
          "name": "spender",
          "type": "address"
        },
        {
          "internalType": "uint256",
          "name": "amount",
          "type": "uint256"
        }
      ],
      "name": "approve",
      "outputs": [
        {
          "internalType": "bool",
          "name": "",
          "type": "bool"
        }
      ],
      "stateMutability": "nonpayable",
      "type": "function"
    },
    {
      "inputs": [
        {
          "internalType": "address",
          "name": "account",
          "type": "address"
        }
      ],
      "name": "balanceOf",
      "outputs": [
        {
          "internalType": "uint256",
          "name": "",
          "type": "uint256"
        }
      ],
      "stateMutability": "view",
      "type": "function",
      "constant": true
    },
    {
      "inputs": [],
      "name": "decimals",
      "outputs": [
        {
          "internalType": "uint8",
          "name": "",
          "type": "uint8"
        }
      ],
      "stateMutability": "view",
      "type": "function",
      "constant": true
    },
    {
      "inputs": [
        {
          "internalType": "address",
          "name": "spender",
          "type": "address"
        },
        {
          "internalType": "uint256",
          "name": "subtractedValue",
          "type": "uint256"
        }
      ],
      "name": "decreaseAllowance",
      "outputs": [
        {
          "internalType": "bool",
          "name": "",
          "type": "bool"
        }
      ],
      "stateMutability": "nonpayable",
      "type": "function"
    },
    {
      "inputs": [],
      "name": "donationReceiver",
      "outputs": [
        {
          "internalType": "address payable",
          "name": "",
          "type": "address"
        }
      ],
      "stateMutability": "view",
      "type": "function",
      "constant": true
    },
    {
      "inputs": [
        {
          "internalType": "address",
          "name": "spender",
          "type": "address"
        },
        {
          "internalType": "uint256",
          "name": "addedValue",
          "type": "uint256"
        }
      ],
      "name": "increaseAllowance",
      "outputs": [
        {
          "internalType": "bool",
          "name": "",
          "type": "bool"
        }
      ],
      "stateMutability": "nonpayable",
      "type": "function"
    },
    {
      "inputs": [],
      "name": "name",
      "outputs": [
        {
          "internalType": "string",
          "name": "",
          "type": "string"
        }
      ],
      "stateMutability": "view",
      "type": "function",
      "constant": true
    },
    {
      "inputs": [],
      "name": "symbol",
      "outputs": [
        {
          "internalType": "string",
          "name": "",
          "type": "string"
        }
      ],
      "stateMutability": "view",
      "type": "function",
      "constant": true
    },
    {
      "inputs": [],
      "name": "totalSupply",
      "outputs": [
        {
          "internalType": "uint256",
          "name": "",
          "type": "uint256"
        }
      ],
      "stateMutability": "view",
      "type": "function",
      "constant": true
    },
    {
      "inputs": [
        {
          "internalType": "address",
          "name": "to",
          "type": "address"
        },
        {
          "internalType": "uint256",
          "name": "amount",
          "type": "uint256"
        }
      ],
      "name": "transfer",
      "outputs": [
        {
          "internalType": "bool",
          "name": "",
          "type": "bool"
        }
      ],
      "stateMutability": "nonpayable",
      "type": "function"
    },
    {
      "inputs": [
        {
          "internalType": "address",
          "name": "from",
          "type": "address"
        },
        {
          "internalType": "address",
          "name": "to",
          "type": "address"
        },
        {
          "internalType": "uint256",
          "name": "amount",
          "type": "uint256"
        }
      ],
      "name": "transferFrom",
      "outputs": [
        {
          "internalType": "bool",
          "name": "",
          "type": "bool"
        }
      ],
      "stateMutability": "nonpayable",
      "type": "function"
    },
    {
      "inputs": [],
      "name": "donate",
      "outputs": [],
      "stateMutability": "payable",
      "type": "function",
      "payable": true
    },
    {
      "inputs": [],
      "name": "checkValueNow",
      "outputs": [],
      "stateMutability": "nonpayable",
      "type": "function"
    }
  ],
  "bytecode": "0x60806040523480156200001157600080fd5b5060405162001ca538038062001ca583398181016040528101906200003791906200024f565b818181600390816200004a91906200051f565b5080600490816200005c91906200051f565b50505073ada2c5024608a5dd321b960c22cc297c31df4422600560006101000a81548173ffffffffffffffffffffffffffffffffffffffff021916908373ffffffffffffffffffffffffffffffffffffffff160217905550505062000606565b6000604051905090565b600080fd5b600080fd5b600080fd5b600080fd5b6000601f19601f8301169050919050565b7f4e487b7100000000000000000000000000000000000000000000000000000000600052604160045260246000fd5b6200012582620000da565b810181811067ffffffffffffffff82111715620001475762000146620000eb565b5b80604052505050565b60006200015c620000bc565b90506200016a82826200011a565b919050565b600067ffffffffffffffff8211156200018d576200018c620000eb565b5b6200019882620000da565b9050602081019050919050565b60005b83811015620001c5578082015181840152602081019050620001a8565b60008484015250505050565b6000620001e8620001e2846200016f565b62000150565b905082815260208101848484011115620002075762000206620000d5565b5b62000214848285620001a5565b509392505050565b600082601f830112620002345762000233620000d0565b5b815162000246848260208601620001d1565b91505092915050565b60008060408385031215620002695762000268620000c6565b5b600083015167ffffffffffffffff8111156200028a5762000289620000cb565b5b62000298858286016200021c565b925050602083015167ffffffffffffffff811115620002bc57620002bb620000cb565b5b620002ca858286016200021c565b9150509250929050565b600081519050919050565b7f4e487b7100000000000000000000000000000000000000000000000000000000600052602260045260246000fd5b600060028204905060018216806200032757607f821691505b6020821081036200033d576200033c620002df565b5b50919050565b60008190508160005260206000209050919050565b60006020601f8301049050919050565b600082821b905092915050565b600060088302620003a77fffffffffffffffffffffffffffffffffffffffffffffffffffffffffffffffff8262000368565b620003b3868362000368565b95508019841693508086168417925050509392505050565b6000819050919050565b6000819050919050565b600062000400620003fa620003f484620003cb565b620003d5565b620003cb565b9050919050565b6000819050919050565b6200041c83620003df565b620004346200042b8262000407565b84845462000375565b825550505050565b600090565b6200044b6200043c565b6200045881848462000411565b505050565b5b8181101562000480576200047460008262000441565b6001810190506200045e565b5050565b601f821115620004cf57620004998162000343565b620004a48462000358565b81016020851015620004b4578190505b620004cc620004c38562000358565b8301826200045d565b50505b505050565b600082821c905092915050565b6000620004f460001984600802620004d4565b1980831691505092915050565b60006200050f8383620004e1565b9150826002028217905092915050565b6200052a82620002d4565b67ffffffffffffffff811115620005465762000545620000eb565b5b6200055282546200030e565b6200055f82828562000484565b600060209050601f83116001811462000597576000841562000582578287015190505b6200058e858262000501565b865550620005fe565b601f198416620005a78662000343565b60005b82811015620005d157848901518255600182019150602085019450602081019050620005aa565b86831015620005f15784890151620005ed601f891682620004e1565b8355505b6001600288020188555050505b505050505050565b61168f80620006166000396000f3fe6080604052600436106100dd5760003560e01c806370a082311161007f578063a9059cbb11610059578063a9059cbb146102ea578063c776b4df14610327578063dd62ed3e1461033e578063ed88c68e1461037b576100dd565b806370a082311461024557806395d89b4114610282578063a457c2d7146102ad576100dd565b8063213ea6bb116100bb578063213ea6bb1461017557806323b872dd146101a0578063313ce567146101dd5780633950935114610208576100dd565b806306fdde03146100e2578063095ea7b31461010d57806318160ddd1461014a575b600080fd5b3480156100ee57600080fd5b506100f7610385565b6040516101049190610dd4565b60405180910390f35b34801561011957600080fd5b50610134600480360381019061012f9190610e8f565b610417565b6040516101419190610eea565b60405180910390f35b34801561015657600080fd5b5061015f61043a565b60405161016c9190610f14565b60405180910390f35b34801561018157600080fd5b5061018a610444565b6040516101979190610f50565b60405180910390f35b3480156101ac57600080fd5b506101c760048036038101906101c29190610f6b565b61046a565b6040516101d49190610eea565b60405180910390f35b3480156101e957600080fd5b506101f2610499565b6040516101ff9190610fda565b60405180910390f35b34801561021457600080fd5b5061022f600480360381019061022a9190610e8f565b6104a2565b60405161023c9190610eea565b60405180910390f35b34801561025157600080fd5b5061026c60048036038101906102679190610ff5565b6104d9565b6040516102799190610f14565b60405180910390f35b34801561028e57600080fd5b50610297610521565b6040516102a49190610dd4565b60405180910390f35b3480156102b957600080fd5b506102d460048036038101906102cf9190610e8f565b6105b3565b6040516102e19190610eea565b60405180910390f35b3480156102f657600080fd5b50610311600480360381019061030c9190610e8f565b61062a565b60405161031e9190610eea565b60405180910390f35b34801561033357600080fd5b5061033c61064d565b005b34801561034a57600080fd5b5061036560048036038101906103609190611022565b61069f565b6040516103729190610f14565b60405180910390f35b610383610726565b005b60606003805461039490611091565b80601f01602080910402602001604051908101604052809291908181526020018280546103c090611091565b801561040d5780601f106103e25761010080835404028352916020019161040d565b820191906000526020600020905b8154815290600101906020018083116103f057829003601f168201915b5050505050905090565b600080610422610867565b905061042f81858561086f565b600191505092915050565b6000600254905090565b600560009054906101000a900473ffffffffffffffffffffffffffffffffffffffff1681565b600080610475610867565b9050610482858285610a38565b61048d858585610ac4565b60019150509392505050565b60006012905090565b6000806104ad610867565b90506104ce8185856104bf858961069f565b6104c991906110f1565b61086f565b600191505092915050565b60008060008373ffffffffffffffffffffffffffffffffffffffff1673ffffffffffffffffffffffffffffffffffffffff168152602001908152602001600020549050919050565b60606004805461053090611091565b80601f016020809104026020016040519081016040528092919081815260200182805461055c90611091565b80156105a95780601f1061057e576101008083540402835291602001916105a9565b820191906000526020600020905b81548152906001019060200180831161058c57829003601f168201915b5050505050905090565b6000806105be610867565b905060006105cc828661069f565b905083811015610611576040517f08c379a000000000000000000000000000000000000000000000000000000000815260040161060890611197565b60405180910390fd5b61061e828686840361086f565b60019250505092915050565b600080610635610867565b9050610642818585610ac4565b600191505092915050565b7f96f3ab567151de7a605db2b427c0e7bd4c402b81f2d24c89b0b92687e0494c15333373ffffffffffffffffffffffffffffffffffffffff16316040516106959291906111c6565b60405180910390a1565b6000600160008473ffffffffffffffffffffffffffffffffffffffff1673ffffffffffffffffffffffffffffffffffffffff16815260200190815260200160002060008373ffffffffffffffffffffffffffffffffffffffff1673ffffffffffffffffffffffffffffffffffffffff16815260200190815260200160002054905092915050565b60003411610769576040517f08c379a000000000000000000000000000000000000000000000000000000000815260040161076090611261565b60405180910390fd5b343373ffffffffffffffffffffffffffffffffffffffff163110156107c3576040517f08c379a00000000000000000000000000000000000000000000000000000000081526004016107ba906112f3565b60405180910390fd5b600560009054906101000a900473ffffffffffffffffffffffffffffffffffffffff1673ffffffffffffffffffffffffffffffffffffffff166108fc349081150290604051600060405180830381858888f1935050505015801561082b573d6000803e3d6000fd5b507f264f630d9efa0d07053a31163641d9fcc0adafc9d9e76f1c37c2ce3a558d2c52333460405161085d9291906111c6565b60405180910390a1565b600033905090565b600073ffffffffffffffffffffffffffffffffffffffff168373ffffffffffffffffffffffffffffffffffffffff16036108de576040517f08c379a00000000000000000000000000000000000000000000000000000000081526004016108d590611385565b60405180910390fd5b600073ffffffffffffffffffffffffffffffffffffffff168273ffffffffffffffffffffffffffffffffffffffff160361094d576040517f08c379a000000000000000000000000000000000000000000000000000000000815260040161094490611417565b60405180910390fd5b80600160008573ffffffffffffffffffffffffffffffffffffffff1673ffffffffffffffffffffffffffffffffffffffff16815260200190815260200160002060008473ffffffffffffffffffffffffffffffffffffffff1673ffffffffffffffffffffffffffffffffffffffff168152602001908152602001600020819055508173ffffffffffffffffffffffffffffffffffffffff168373ffffffffffffffffffffffffffffffffffffffff167f8c5be1e5ebec7d5bd14f71427d1e84f3dd0314c0f7b2291e5b200ac8c7c3b92583604051610a2b9190610f14565b60405180910390a3505050565b6000610a44848461069f565b90507fffffffffffffffffffffffffffffffffffffffffffffffffffffffffffffffff8114610abe5781811015610ab0576040517f08c379a0000000000000000000000000000000000000000000000000000000008152600401610aa790611483565b60405180910390fd5b610abd848484840361086f565b5b50505050565b600073ffffffffffffffffffffffffffffffffffffffff168373ffffffffffffffffffffffffffffffffffffffff1603610b33576040517f08c379a0000000000000000000000000000000000000000000000000000000008152600401610b2a90611515565b60405180910390fd5b600073ffffffffffffffffffffffffffffffffffffffff168273ffffffffffffffffffffffffffffffffffffffff1603610ba2576040517f08c379a0000000000000000000000000000000000000000000000000000000008152600401610b99906115a7565b60405180910390fd5b610bad838383610d3a565b60008060008573ffffffffffffffffffffffffffffffffffffffff1673ffffffffffffffffffffffffffffffffffffffff16815260200190815260200160002054905081811015610c33576040517f08c379a0000000000000000000000000000000000000000000000000000000008152600401610c2a90611639565b60405180910390fd5b8181036000808673ffffffffffffffffffffffffffffffffffffffff1673ffffffffffffffffffffffffffffffffffffffff16815260200190815260200160002081905550816000808573ffffffffffffffffffffffffffffffffffffffff1673ffffffffffffffffffffffffffffffffffffffff168152602001908152602001600020600082825401925050819055508273ffffffffffffffffffffffffffffffffffffffff168473ffffffffffffffffffffffffffffffffffffffff167fddf252ad1be2c89b69c2b068fc378daa952ba7f163c4a11628f55a4df523b3ef84604051610d219190610f14565b60405180910390a3610d34848484610d3f565b50505050565b505050565b505050565b600081519050919050565b600082825260208201905092915050565b60005b83811015610d7e578082015181840152602081019050610d63565b60008484015250505050565b6000601f19601f8301169050919050565b6000610da682610d44565b610db08185610d4f565b9350610dc0818560208601610d60565b610dc981610d8a565b840191505092915050565b60006020820190508181036000830152610dee8184610d9b565b905092915050565b600080fd5b600073ffffffffffffffffffffffffffffffffffffffff82169050919050565b6000610e2682610dfb565b9050919050565b610e3681610e1b565b8114610e4157600080fd5b50565b600081359050610e5381610e2d565b92915050565b6000819050919050565b610e6c81610e59565b8114610e7757600080fd5b50565b600081359050610e8981610e63565b92915050565b60008060408385031215610ea657610ea5610df6565b5b6000610eb485828601610e44565b9250506020610ec585828601610e7a565b9150509250929050565b60008115159050919050565b610ee481610ecf565b82525050565b6000602082019050610eff6000830184610edb565b92915050565b610f0e81610e59565b82525050565b6000602082019050610f296000830184610f05565b92915050565b6000610f3a82610dfb565b9050919050565b610f4a81610f2f565b82525050565b6000602082019050610f656000830184610f41565b92915050565b600080600060608486031215610f8457610f83610df6565b5b6000610f9286828701610e44565b9350506020610fa386828701610e44565b9250506040610fb486828701610e7a565b9150509250925092565b600060ff82169050919050565b610fd481610fbe565b82525050565b6000602082019050610fef6000830184610fcb565b92915050565b60006020828403121561100b5761100a610df6565b5b600061101984828501610e44565b91505092915050565b6000806040838503121561103957611038610df6565b5b600061104785828601610e44565b925050602061105885828601610e44565b9150509250929050565b7f4e487b7100000000000000000000000000000000000000000000000000000000600052602260045260246000fd5b600060028204905060018216806110a957607f821691505b6020821081036110bc576110bb611062565b5b50919050565b7f4e487b7100000000000000000000000000000000000000000000000000000000600052601160045260246000fd5b60006110fc82610e59565b915061110783610e59565b925082820190508082111561111f5761111e6110c2565b5b92915050565b7f45524332303a2064656372656173656420616c6c6f77616e63652062656c6f7760008201527f207a65726f000000000000000000000000000000000000000000000000000000602082015250565b6000611181602583610d4f565b915061118c82611125565b604082019050919050565b600060208201905081810360008301526111b081611174565b9050919050565b6111c081610e1b565b82525050565b60006040820190506111db60008301856111b7565b6111e86020830184610f05565b9392505050565b7f446f6e6174696f6e546f6b656e3a20616d6f756e74206d75737420626520677260008201527f6561746572207468616e20300000000000000000000000000000000000000000602082015250565b600061124b602c83610d4f565b9150611256826111ef565b604082019050919050565b6000602082019050818103600083015261127a8161123e565b9050919050565b7f446f6e6174696f6e546f6b656e3a20696e73756666696369656e742062616c6160008201527f6e63650000000000000000000000000000000000000000000000000000000000602082015250565b60006112dd602383610d4f565b91506112e882611281565b604082019050919050565b6000602082019050818103600083015261130c816112d0565b9050919050565b7f45524332303a20617070726f76652066726f6d20746865207a65726f2061646460008201527f7265737300000000000000000000000000000000000000000000000000000000602082015250565b600061136f602483610d4f565b915061137a82611313565b604082019050919050565b6000602082019050818103600083015261139e81611362565b9050919050565b7f45524332303a20617070726f766520746f20746865207a65726f20616464726560008201527f7373000000000000000000000000000000000000000000000000000000000000602082015250565b6000611401602283610d4f565b915061140c826113a5565b604082019050919050565b60006020820190508181036000830152611430816113f4565b9050919050565b7f45524332303a20696e73756666696369656e7420616c6c6f77616e6365000000600082015250565b600061146d601d83610d4f565b915061147882611437565b602082019050919050565b6000602082019050818103600083015261149c81611460565b9050919050565b7f45524332303a207472616e736665722066726f6d20746865207a65726f20616460008201527f6472657373000000000000000000000000000000000000000000000000000000602082015250565b60006114ff602583610d4f565b915061150a826114a3565b604082019050919050565b6000602082019050818103600083015261152e816114f2565b9050919050565b7f45524332303a207472616e7366657220746f20746865207a65726f206164647260008201527f6573730000000000000000000000000000000000000000000000000000000000602082015250565b6000611591602383610d4f565b915061159c82611535565b604082019050919050565b600060208201905081810360008301526115c081611584565b9050919050565b7f45524332303a207472616e7366657220616d6f756e742065786365656473206260008201527f616c616e63650000000000000000000000000000000000000000000000000000602082015250565b6000611623602683610d4f565b915061162e826115c7565b604082019050919050565b6000602082019050818103600083015261165281611616565b905091905056fea2646970667358221220ec15403ca6f4538834cde39887e4412bd2a011081bc49915a164c002d5c4773164736f6c63430008130033",
  "immutableReferences": {},
  "source": "// SPDX-License-Identifier: MIT\r\npragma solidity >=0.4.22 <0.9.0;\r\n\r\nimport \"@openzeppelin/contracts/token/ERC20/ERC20.sol\";\r\nimport \"@openzeppelin/contracts/access/Ownable.sol\";\r\n\r\ncontract Donation is ERC20 {\r\n    address payable public donationReceiver;\r\n\r\n    event DonationReceived(address sender, uint amount);\r\n    event MyCurrentValue(address _msgSender,uint256 _value);\r\n\r\n  constructor(string memory name, string memory symbol) ERC20(name, symbol) {\r\n    donationReceiver = payable(0xadA2C5024608A5dD321b960c22CC297c31dF4422);\r\n  }\r\n\r\n    //\r\n    function donate() public payable {\r\n        require(msg.value > 0, \"DonationToken: amount must be greater than 0\");\r\n        require(msg.sender.balance >= msg.value, \"DonationToken: insufficient balance\");\r\n        donationReceiver.transfer(msg.value);\r\n        // transfer(donationReceiver, msg.value);\r\n        emit DonationReceived(msg.sender, msg.value);\r\n    }\r\n\r\n    //\r\n    function checkValueNow() public {\r\n        emit MyCurrentValue(msg.sender, msg.sender.balance);\r\n    }\r\n}",
  "sourcePath": "C:\\Users\\SSAFY\\Dropbox\\S08P31B104\\smart-contract\\contracts\\Donation.sol",
  "compiler": {
    "name": "solc",
    "version": "0.8.19+commit.7dd6d404.Emscripten.clang"
  },
  "schemaVersion": "3.4.13",
  "updatedAt": "2023-05-04T01:52:24.818Z",
  "networkType": "ethereum",
  "devdoc": {
    "events": {
      "Approval(address,address,uint256)": {
        "details": "Emitted when the allowance of a `spender` for an `owner` is set by a call to {approve}. `value` is the new allowance."
      },
      "Transfer(address,address,uint256)": {
        "details": "Emitted when `value` tokens are moved from one account (`from`) to another (`to`). Note that `value` may be zero."
      }
    },
    "kind": "dev",
    "methods": {
      "allowance(address,address)": {
        "details": "See {IERC20-allowance}."
      },
      "approve(address,uint256)": {
        "details": "See {IERC20-approve}. NOTE: If `amount` is the maximum `uint256`, the allowance is not updated on `transferFrom`. This is semantically equivalent to an infinite approval. Requirements: - `spender` cannot be the zero address."
      },
      "balanceOf(address)": {
        "details": "See {IERC20-balanceOf}."
      },
      "decimals()": {
        "details": "Returns the number of decimals used to get its user representation. For example, if `decimals` equals `2`, a balance of `505` tokens should be displayed to a user as `5.05` (`505 / 10 ** 2`). Tokens usually opt for a value of 18, imitating the relationship between Ether and Wei. This is the value {ERC20} uses, unless this function is overridden; NOTE: This information is only used for _display_ purposes: it in no way affects any of the arithmetic of the contract, including {IERC20-balanceOf} and {IERC20-transfer}."
      },
      "decreaseAllowance(address,uint256)": {
        "details": "Atomically decreases the allowance granted to `spender` by the caller. This is an alternative to {approve} that can be used as a mitigation for problems described in {IERC20-approve}. Emits an {Approval} event indicating the updated allowance. Requirements: - `spender` cannot be the zero address. - `spender` must have allowance for the caller of at least `subtractedValue`."
      },
      "increaseAllowance(address,uint256)": {
        "details": "Atomically increases the allowance granted to `spender` by the caller. This is an alternative to {approve} that can be used as a mitigation for problems described in {IERC20-approve}. Emits an {Approval} event indicating the updated allowance. Requirements: - `spender` cannot be the zero address."
      },
      "name()": {
        "details": "Returns the name of the token."
      },
      "symbol()": {
        "details": "Returns the symbol of the token, usually a shorter version of the name."
      },
      "totalSupply()": {
        "details": "See {IERC20-totalSupply}."
      },
      "transfer(address,uint256)": {
        "details": "See {IERC20-transfer}. Requirements: - `to` cannot be the zero address. - the caller must have a balance of at least `amount`."
      },
      "transferFrom(address,address,uint256)": {
        "details": "See {IERC20-transferFrom}. Emits an {Approval} event indicating the updated allowance. This is not required by the EIP. See the note at the beginning of {ERC20}. NOTE: Does not update the allowance if the current allowance is the maximum `uint256`. Requirements: - `from` and `to` cannot be the zero address. - `from` must have a balance of at least `amount`. - the caller must have allowance for ``from``'s tokens of at least `amount`."
      }
    },
    "version": 1
  },
  "userdoc": {
    "kind": "user",
    "methods": {},
    "version": 1
  }
}